{
  "_format": "hh-sol-artifact-1",
  "contractName": "UnrealMarket",
  "sourceName": "contracts/UnrealMarket.sol",
  "abi": [
    {
      "inputs": [],
      "stateMutability": "nonpayable",
      "type": "constructor"
    },
    {
      "anonymous": false,
      "inputs": [
        {
          "indexed": true,
          "internalType": "address",
          "name": "owner",
          "type": "address"
        },
        {
          "indexed": true,
          "internalType": "address",
          "name": "approved",
          "type": "address"
        },
        {
          "indexed": true,
          "internalType": "uint256",
          "name": "tokenId",
          "type": "uint256"
        }
      ],
      "name": "Approval",
      "type": "event"
    },
    {
      "anonymous": false,
      "inputs": [
        {
          "indexed": true,
          "internalType": "address",
          "name": "owner",
          "type": "address"
        },
        {
          "indexed": true,
          "internalType": "address",
          "name": "operator",
          "type": "address"
        },
        {
          "indexed": false,
          "internalType": "bool",
          "name": "approved",
          "type": "bool"
        }
      ],
      "name": "ApprovalForAll",
      "type": "event"
    },
    {
      "anonymous": false,
      "inputs": [
        {
          "indexed": true,
          "internalType": "uint256",
          "name": "collectionId",
          "type": "uint256"
        },
        {
          "indexed": false,
          "internalType": "string",
          "name": "banner",
          "type": "string"
        },
        {
          "indexed": false,
          "internalType": "string",
          "name": "dp",
          "type": "string"
        },
        {
          "indexed": false,
          "internalType": "address",
          "name": "owner",
          "type": "address"
        },
        {
          "indexed": false,
          "internalType": "string",
          "name": "name",
          "type": "string"
        },
        {
          "indexed": false,
          "internalType": "string",
          "name": "description",
          "type": "string"
        },
        {
          "indexed": false,
          "internalType": "string[]",
          "name": "tags",
          "type": "string[]"
        }
      ],
      "name": "CollectionCreated",
      "type": "event"
    },
    {
      "anonymous": false,
      "inputs": [
        {
          "indexed": true,
          "internalType": "uint256",
          "name": "tokenId",
          "type": "uint256"
        },
        {
          "indexed": false,
          "internalType": "address",
          "name": "seller",
          "type": "address"
        },
        {
          "indexed": false,
          "internalType": "address",
          "name": "owner",
          "type": "address"
        },
        {
          "indexed": false,
          "internalType": "uint256",
          "name": "price",
          "type": "uint256"
        },
        {
          "indexed": false,
          "internalType": "bool",
          "name": "sold",
          "type": "bool"
        },
        {
          "indexed": false,
          "internalType": "string",
          "name": "collection",
          "type": "string"
        },
        {
          "indexed": false,
          "internalType": "string",
          "name": "name",
          "type": "string"
        },
        {
          "indexed": false,
          "internalType": "string",
          "name": "image",
          "type": "string"
        },
        {
          "indexed": false,
          "internalType": "string",
          "name": "category",
          "type": "string"
        },
        {
          "indexed": false,
          "internalType": "string",
          "name": "description",
          "type": "string"
        },
        {
          "indexed": false,
          "internalType": "string[]",
          "name": "tags",
          "type": "string[]"
        }
      ],
      "name": "MarketItemCreated",
      "type": "event"
    },
    {
      "anonymous": false,
      "inputs": [
        {
          "indexed": true,
          "internalType": "uint256",
          "name": "tokenId",
          "type": "uint256"
        },
        {
          "indexed": false,
          "internalType": "address",
          "name": "seller",
          "type": "address"
        },
        {
          "indexed": false,
          "internalType": "address",
          "name": "owner",
          "type": "address"
        },
        {
          "indexed": false,
          "internalType": "uint256",
          "name": "price",
          "type": "uint256"
        },
        {
          "indexed": false,
          "internalType": "bool",
          "name": "sold",
          "type": "bool"
        },
        {
          "indexed": false,
          "internalType": "string",
          "name": "collection",
          "type": "string"
        },
        {
          "indexed": false,
          "internalType": "string",
          "name": "name",
          "type": "string"
        },
        {
          "indexed": false,
          "internalType": "string",
          "name": "image",
          "type": "string"
        },
        {
          "indexed": false,
          "internalType": "string",
          "name": "category",
          "type": "string"
        },
        {
          "indexed": false,
          "internalType": "string",
          "name": "description",
          "type": "string"
        },
        {
          "indexed": false,
          "internalType": "string[]",
          "name": "tags",
          "type": "string[]"
        }
      ],
      "name": "MarketItemSale",
      "type": "event"
    },
    {
      "anonymous": false,
      "inputs": [
        {
          "indexed": false,
          "internalType": "address",
          "name": "profileId",
          "type": "address"
        },
        {
          "indexed": false,
          "internalType": "string",
          "name": "banner",
          "type": "string"
        },
        {
          "indexed": false,
          "internalType": "string",
          "name": "dp",
          "type": "string"
        },
        {
          "indexed": false,
          "internalType": "string",
          "name": "name",
          "type": "string"
        },
        {
          "indexed": false,
          "internalType": "string",
          "name": "bio",
          "type": "string"
        }
      ],
      "name": "ProfileCreated",
      "type": "event"
    },
    {
      "anonymous": false,
      "inputs": [
        {
          "indexed": false,
          "internalType": "address",
          "name": "profileId",
          "type": "address"
        },
        {
          "indexed": false,
          "internalType": "string",
          "name": "banner",
          "type": "string"
        },
        {
          "indexed": false,
          "internalType": "string",
          "name": "dp",
          "type": "string"
        },
        {
          "indexed": false,
          "internalType": "string",
          "name": "name",
          "type": "string"
        },
        {
          "indexed": false,
          "internalType": "string",
          "name": "bio",
          "type": "string"
        }
      ],
      "name": "ProfileEdited",
      "type": "event"
    },
    {
      "anonymous": false,
      "inputs": [
        {
          "indexed": true,
          "internalType": "address",
          "name": "from",
          "type": "address"
        },
        {
          "indexed": true,
          "internalType": "address",
          "name": "to",
          "type": "address"
        },
        {
          "indexed": true,
          "internalType": "uint256",
          "name": "tokenId",
          "type": "uint256"
        }
      ],
      "name": "Transfer",
      "type": "event"
    },
    {
      "inputs": [
        {
          "internalType": "address",
          "name": "to",
          "type": "address"
        },
        {
          "internalType": "uint256",
          "name": "tokenId",
          "type": "uint256"
        }
      ],
      "name": "approve",
      "outputs": [],
      "stateMutability": "nonpayable",
      "type": "function"
    },
    {
      "inputs": [
        {
          "internalType": "address",
          "name": "owner",
          "type": "address"
        }
      ],
      "name": "balanceOf",
      "outputs": [
        {
          "internalType": "uint256",
          "name": "",
          "type": "uint256"
        }
      ],
      "stateMutability": "view",
      "type": "function"
    },
    {
      "inputs": [
        {
          "internalType": "string",
          "name": "banner",
          "type": "string"
        },
        {
          "internalType": "string",
          "name": "dp",
          "type": "string"
        },
        {
          "internalType": "string",
          "name": "name",
          "type": "string"
        },
        {
          "internalType": "string",
          "name": "description",
          "type": "string"
        },
        {
          "internalType": "string[]",
          "name": "tags",
          "type": "string[]"
        }
      ],
      "name": "createCollection",
      "outputs": [],
      "stateMutability": "nonpayable",
      "type": "function"
    },
    {
      "inputs": [
        {
          "internalType": "uint256",
          "name": "tokenId",
          "type": "uint256"
        }
      ],
      "name": "createMarketSale",
      "outputs": [],
      "stateMutability": "payable",
      "type": "function"
    },
    {
      "inputs": [
        {
          "internalType": "string",
          "name": "banner",
          "type": "string"
        },
        {
          "internalType": "string",
          "name": "dp",
          "type": "string"
        },
        {
          "internalType": "string",
          "name": "name",
          "type": "string"
        },
        {
          "internalType": "string",
          "name": "bio",
          "type": "string"
        }
      ],
      "name": "createProfile",
      "outputs": [],
      "stateMutability": "nonpayable",
      "type": "function"
    },
    {
      "inputs": [
        {
          "internalType": "string",
          "name": "tokenURI",
          "type": "string"
        },
        {
          "internalType": "uint256",
          "name": "price",
          "type": "uint256"
        },
        {
          "internalType": "string",
          "name": "collection",
          "type": "string"
        },
        {
          "internalType": "string",
          "name": "name",
          "type": "string"
        },
        {
          "internalType": "string",
          "name": "image",
          "type": "string"
        },
        {
          "internalType": "string",
          "name": "category",
          "type": "string"
        },
        {
          "internalType": "string",
          "name": "description",
          "type": "string"
        },
        {
          "internalType": "string[]",
          "name": "tags",
          "type": "string[]"
        }
      ],
      "name": "createToken",
      "outputs": [
        {
          "internalType": "uint256",
          "name": "",
          "type": "uint256"
        }
      ],
      "stateMutability": "payable",
      "type": "function"
    },
    {
      "inputs": [
        {
          "internalType": "string",
          "name": "banner",
          "type": "string"
        },
        {
          "internalType": "string",
          "name": "dp",
          "type": "string"
        },
        {
          "internalType": "string",
          "name": "name",
          "type": "string"
        },
        {
          "internalType": "string",
          "name": "bio",
          "type": "string"
        }
      ],
      "name": "editProfile",
      "outputs": [],
      "stateMutability": "nonpayable",
      "type": "function"
    },
    {
      "inputs": [
        {
          "internalType": "uint256",
          "name": "id",
          "type": "uint256"
        }
      ],
      "name": "fetchCollection",
      "outputs": [
        {
          "components": [
            {
              "internalType": "uint256",
              "name": "collectionId",
              "type": "uint256"
            },
            {
              "internalType": "string",
              "name": "banner",
              "type": "string"
            },
            {
              "internalType": "string",
              "name": "dp",
              "type": "string"
            },
            {
              "internalType": "address",
              "name": "owner",
              "type": "address"
            },
            {
              "internalType": "string",
              "name": "name",
              "type": "string"
            },
            {
              "internalType": "string",
              "name": "description",
              "type": "string"
            },
            {
              "internalType": "string[]",
              "name": "tags",
              "type": "string[]"
            }
          ],
          "internalType": "struct UnrealMarket.Collection",
          "name": "",
          "type": "tuple"
        }
      ],
      "stateMutability": "view",
      "type": "function"
    },
    {
      "inputs": [],
      "name": "fetchCollections",
      "outputs": [
        {
          "components": [
            {
              "internalType": "uint256",
              "name": "collectionId",
              "type": "uint256"
            },
            {
              "internalType": "string",
              "name": "banner",
              "type": "string"
            },
            {
              "internalType": "string",
              "name": "dp",
              "type": "string"
            },
            {
              "internalType": "address",
              "name": "owner",
              "type": "address"
            },
            {
              "internalType": "string",
              "name": "name",
              "type": "string"
            },
            {
              "internalType": "string",
              "name": "description",
              "type": "string"
            },
            {
              "internalType": "string[]",
              "name": "tags",
              "type": "string[]"
            }
          ],
          "internalType": "struct UnrealMarket.Collection[]",
          "name": "",
          "type": "tuple[]"
        }
      ],
      "stateMutability": "view",
      "type": "function"
    },
    {
      "inputs": [
        {
          "internalType": "address",
          "name": "tempAddress",
          "type": "address"
        }
      ],
      "name": "fetchCollectionsOfAddress",
      "outputs": [
        {
          "components": [
            {
              "internalType": "uint256",
              "name": "collectionId",
              "type": "uint256"
            },
            {
              "internalType": "string",
              "name": "banner",
              "type": "string"
            },
            {
              "internalType": "string",
              "name": "dp",
              "type": "string"
            },
            {
              "internalType": "address",
              "name": "owner",
              "type": "address"
            },
            {
              "internalType": "string",
              "name": "name",
              "type": "string"
            },
            {
              "internalType": "string",
              "name": "description",
              "type": "string"
            },
            {
              "internalType": "string[]",
              "name": "tags",
              "type": "string[]"
            }
          ],
          "internalType": "struct UnrealMarket.Collection[]",
          "name": "",
          "type": "tuple[]"
        }
      ],
      "stateMutability": "view",
      "type": "function"
    },
    {
      "inputs": [],
      "name": "fetchItemsListed",
      "outputs": [
        {
          "components": [
            {
              "internalType": "uint256",
              "name": "tokenId",
              "type": "uint256"
            },
            {
              "internalType": "address payable",
              "name": "seller",
              "type": "address"
            },
            {
              "internalType": "address payable",
              "name": "owner",
              "type": "address"
            },
            {
              "internalType": "uint256",
              "name": "price",
              "type": "uint256"
            },
            {
              "internalType": "bool",
              "name": "sold",
              "type": "bool"
            },
            {
              "internalType": "string",
              "name": "collection",
              "type": "string"
            },
            {
              "internalType": "string",
              "name": "name",
              "type": "string"
            },
            {
              "internalType": "string",
              "name": "image",
              "type": "string"
            },
            {
              "internalType": "string",
              "name": "category",
              "type": "string"
            },
            {
              "internalType": "string",
              "name": "description",
              "type": "string"
            },
            {
              "internalType": "string[]",
              "name": "tags",
              "type": "string[]"
            }
          ],
          "internalType": "struct UnrealMarket.MarketItem[]",
          "name": "",
          "type": "tuple[]"
        }
      ],
      "stateMutability": "view",
      "type": "function"
    },
    {
      "inputs": [],
      "name": "fetchMarketItems",
      "outputs": [
        {
          "components": [
            {
              "internalType": "uint256",
              "name": "tokenId",
              "type": "uint256"
            },
            {
              "internalType": "address payable",
              "name": "seller",
              "type": "address"
            },
            {
              "internalType": "address payable",
              "name": "owner",
              "type": "address"
            },
            {
              "internalType": "uint256",
              "name": "price",
              "type": "uint256"
            },
            {
              "internalType": "bool",
              "name": "sold",
              "type": "bool"
            },
            {
              "internalType": "string",
              "name": "collection",
              "type": "string"
            },
            {
              "internalType": "string",
              "name": "name",
              "type": "string"
            },
            {
              "internalType": "string",
              "name": "image",
              "type": "string"
            },
            {
              "internalType": "string",
              "name": "category",
              "type": "string"
            },
            {
              "internalType": "string",
              "name": "description",
              "type": "string"
            },
            {
              "internalType": "string[]",
              "name": "tags",
              "type": "string[]"
            }
          ],
          "internalType": "struct UnrealMarket.MarketItem[]",
          "name": "",
          "type": "tuple[]"
        }
      ],
      "stateMutability": "view",
      "type": "function"
    },
    {
      "inputs": [],
      "name": "fetchMyNFTs",
      "outputs": [
        {
          "components": [
            {
              "internalType": "uint256",
              "name": "tokenId",
              "type": "uint256"
            },
            {
              "internalType": "address payable",
              "name": "seller",
              "type": "address"
            },
            {
              "internalType": "address payable",
              "name": "owner",
              "type": "address"
            },
            {
              "internalType": "uint256",
              "name": "price",
              "type": "uint256"
            },
            {
              "internalType": "bool",
              "name": "sold",
              "type": "bool"
            },
            {
              "internalType": "string",
              "name": "collection",
              "type": "string"
            },
            {
              "internalType": "string",
              "name": "name",
              "type": "string"
            },
            {
              "internalType": "string",
              "name": "image",
              "type": "string"
            },
            {
              "internalType": "string",
              "name": "category",
              "type": "string"
            },
            {
              "internalType": "string",
              "name": "description",
              "type": "string"
            },
            {
              "internalType": "string[]",
              "name": "tags",
              "type": "string[]"
            }
          ],
          "internalType": "struct UnrealMarket.MarketItem[]",
          "name": "",
          "type": "tuple[]"
        }
      ],
      "stateMutability": "view",
      "type": "function"
    },
    {
      "inputs": [
        {
          "internalType": "uint256",
          "name": "tokenId",
          "type": "uint256"
        }
      ],
      "name": "getApproved",
      "outputs": [
        {
          "internalType": "address",
          "name": "",
          "type": "address"
        }
      ],
      "stateMutability": "view",
      "type": "function"
    },
    {
      "inputs": [],
      "name": "getListingPrice",
      "outputs": [
        {
          "internalType": "uint256",
          "name": "",
          "type": "uint256"
        }
      ],
      "stateMutability": "view",
      "type": "function"
    },
    {
      "inputs": [
        {
          "internalType": "address",
          "name": "id",
          "type": "address"
        }
      ],
      "name": "getProfile",
      "outputs": [
        {
          "components": [
            {
              "internalType": "address",
              "name": "profileId",
              "type": "address"
            },
            {
              "internalType": "string",
              "name": "banner",
              "type": "string"
            },
            {
              "internalType": "string",
              "name": "dp",
              "type": "string"
            },
            {
              "internalType": "string",
              "name": "name",
              "type": "string"
            },
            {
              "internalType": "string",
              "name": "bio",
              "type": "string"
            }
          ],
          "internalType": "struct UnrealMarket.Profile",
          "name": "",
          "type": "tuple"
        }
      ],
      "stateMutability": "view",
      "type": "function"
    },
    {
      "inputs": [
        {
          "internalType": "address",
          "name": "owner",
          "type": "address"
        },
        {
          "internalType": "address",
          "name": "operator",
          "type": "address"
        }
      ],
      "name": "isApprovedForAll",
      "outputs": [
        {
          "internalType": "bool",
          "name": "",
          "type": "bool"
        }
      ],
      "stateMutability": "view",
      "type": "function"
    },
    {
      "inputs": [],
      "name": "name",
      "outputs": [
        {
          "internalType": "string",
          "name": "",
          "type": "string"
        }
      ],
      "stateMutability": "view",
      "type": "function"
    },
    {
      "inputs": [
        {
          "internalType": "uint256",
          "name": "tokenId",
          "type": "uint256"
        }
      ],
      "name": "ownerOf",
      "outputs": [
        {
          "internalType": "address",
          "name": "",
          "type": "address"
        }
      ],
      "stateMutability": "view",
      "type": "function"
    },
    {
      "inputs": [
        {
          "internalType": "uint256",
          "name": "tokenId",
          "type": "uint256"
        },
        {
          "internalType": "uint256",
          "name": "price",
          "type": "uint256"
        }
      ],
      "name": "resellToken",
      "outputs": [],
      "stateMutability": "payable",
      "type": "function"
    },
    {
      "inputs": [
        {
          "internalType": "address",
          "name": "from",
          "type": "address"
        },
        {
          "internalType": "address",
          "name": "to",
          "type": "address"
        },
        {
          "internalType": "uint256",
          "name": "tokenId",
          "type": "uint256"
        }
      ],
      "name": "safeTransferFrom",
      "outputs": [],
      "stateMutability": "nonpayable",
      "type": "function"
    },
    {
      "inputs": [
        {
          "internalType": "address",
          "name": "from",
          "type": "address"
        },
        {
          "internalType": "address",
          "name": "to",
          "type": "address"
        },
        {
          "internalType": "uint256",
          "name": "tokenId",
          "type": "uint256"
        },
        {
          "internalType": "bytes",
          "name": "_data",
          "type": "bytes"
        }
      ],
      "name": "safeTransferFrom",
      "outputs": [],
      "stateMutability": "nonpayable",
      "type": "function"
    },
    {
      "inputs": [
        {
          "internalType": "address",
          "name": "operator",
          "type": "address"
        },
        {
          "internalType": "bool",
          "name": "approved",
          "type": "bool"
        }
      ],
      "name": "setApprovalForAll",
      "outputs": [],
      "stateMutability": "nonpayable",
      "type": "function"
    },
    {
      "inputs": [
        {
          "internalType": "bytes4",
          "name": "interfaceId",
          "type": "bytes4"
        }
      ],
      "name": "supportsInterface",
      "outputs": [
        {
          "internalType": "bool",
          "name": "",
          "type": "bool"
        }
      ],
      "stateMutability": "view",
      "type": "function"
    },
    {
      "inputs": [],
      "name": "symbol",
      "outputs": [
        {
          "internalType": "string",
          "name": "",
          "type": "string"
        }
      ],
      "stateMutability": "view",
      "type": "function"
    },
    {
      "inputs": [
        {
          "internalType": "uint256",
          "name": "tokenId",
          "type": "uint256"
        }
      ],
      "name": "tokenURI",
      "outputs": [
        {
          "internalType": "string",
          "name": "",
          "type": "string"
        }
      ],
      "stateMutability": "view",
      "type": "function"
    },
    {
      "inputs": [
        {
          "internalType": "address",
          "name": "from",
          "type": "address"
        },
        {
          "internalType": "address",
          "name": "to",
          "type": "address"
        },
        {
          "internalType": "uint256",
          "name": "tokenId",
          "type": "uint256"
        }
      ],
      "name": "transferFrom",
      "outputs": [],
      "stateMutability": "nonpayable",
      "type": "function"
    },
    {
      "inputs": [
        {
          "internalType": "uint256",
          "name": "_listingPrice",
          "type": "uint256"
        }
      ],
      "name": "updateListingPrice",
      "outputs": [],
      "stateMutability": "payable",
      "type": "function"
    }
  ],
  "bytecode": "0x60806040526658d15e17628000600a553480156200001c57600080fd5b50604080518082018252600d81526c155b9c99585b0813585c9ad95d609a1b60208083019182528351808501909452600384526215551560ea1b9084015281519192916200006d916000916200009e565b508051620000839060019060208401906200009e565b5050600b80546001600160a01b031916331790555062000180565b828054620000ac9062000144565b90600052602060002090601f016020900481019282620000d057600085556200011b565b82601f10620000eb57805160ff19168380011785556200011b565b828001600101855582156200011b579182015b828111156200011b578251825591602001919060010190620000fe565b50620001299291506200012d565b5090565b5b808211156200012957600081556001016200012e565b600181811c908216806200015957607f821691505b6020821081036200017a57634e487b7160e01b600052602260045260246000fd5b50919050565b61474b80620001906000396000f3fe6080604052600436106101b75760003560e01c806370a08231116100ec578063be9af5361161008a578063d2ead4cb11610064578063d2ead4cb146104c0578063e219fc75146104e2578063e3680a3b146104f5578063e985e9c51461051557600080fd5b8063be9af53614610460578063c2f8637d14610473578063c87b56dd146104a057600080fd5b8063a22cb465116100c6578063a22cb465146103ed578063ae677aa31461040d578063b0c0647f14610420578063b88d4fde1461044057600080fd5b806370a082311461039857806395d89b41146103b857806398fa5254146103cd57600080fd5b8063202e374011610159578063427a857f11610133578063427a857f1461033057806342842e0e1461034357806345f8fa80146103635780636352211e1461037857600080fd5b8063202e3740146102db57806323b872dd146102f05780633e3a648d1461031057600080fd5b8063095ea7b311610195578063095ea7b31461024b5780630f08efe01461026d5780630f53a4701461028f57806312e85585146102bc57600080fd5b806301ffc9a7146101bc57806306fdde03146101f1578063081812fc14610213575b600080fd5b3480156101c857600080fd5b506101dc6101d73660046137ea565b61055e565b60405190151581526020015b60405180910390f35b3480156101fd57600080fd5b506102066105b0565b6040516101e8919061385f565b34801561021f57600080fd5b5061023361022e366004613872565b610642565b6040516001600160a01b0390911681526020016101e8565b34801561025757600080fd5b5061026b6102663660046138a7565b6106cf565b005b34801561027957600080fd5b506102826107e4565b6040516101e89190613929565b34801561029b57600080fd5b506102af6102aa366004613a65565b610d15565b6040516101e89190613a80565b3480156102c857600080fd5b50600a545b6040519081526020016101e8565b3480156102e757600080fd5b50610282610fd2565b3480156102fc57600080fd5b5061026b61030b366004613b10565b611540565b34801561031c57600080fd5b5061026b61032b366004613c09565b611571565b6102cd61033e366004613d53565b611652565b34801561034f57600080fd5b5061026b61035e366004613b10565b6116a0565b34801561036f57600080fd5b506102826116bb565b34801561038457600080fd5b50610233610393366004613872565b611c29565b3480156103a457600080fd5b506102cd6103b3366004613a65565b611ca0565b3480156103c457600080fd5b50610206611d27565b3480156103d957600080fd5b5061026b6103e8366004613e77565b611d36565b3480156103f957600080fd5b5061026b610408366004613f48565b611e93565b61026b61041b366004613872565b611ea2565b34801561042c57600080fd5b5061026b61043b366004613c09565b611f1a565b34801561044c57600080fd5b5061026b61045b366004613f84565b612013565b61026b61046e366004613872565b61204b565b34801561047f57600080fd5b5061049361048e366004613872565b612243565b6040516101e8919061408b565b3480156104ac57600080fd5b506102066104bb366004613872565b6125b1565b3480156104cc57600080fd5b506104d5612727565b6040516101e8919061409e565b61026b6104f0366004614100565b612841565b34801561050157600080fd5b506104d5610510366004613a65565b612939565b34801561052157600080fd5b506101dc610530366004614122565b6001600160a01b03918216600090815260056020908152604080832093909416825291909152205460ff1690565b60006001600160e01b031982166380ac58cd60e01b148061058f57506001600160e01b03198216635b5e139f60e01b145b806105aa57506301ffc9a760e01b6001600160e01b03198316145b92915050565b6060600080546105bf90614155565b80601f01602080910402602001604051908101604052809291908181526020018280546105eb90614155565b80156106385780601f1061060d57610100808354040283529160200191610638565b820191906000526020600020905b81548152906001019060200180831161061b57829003601f168201915b5050505050905090565b600061064d82612a52565b6106b35760405162461bcd60e51b815260206004820152602c60248201527f4552433732313a20617070726f76656420717565727920666f72206e6f6e657860448201526b34b9ba32b73a103a37b5b2b760a11b60648201526084015b60405180910390fd5b506000908152600460205260409020546001600160a01b031690565b60006106da82611c29565b9050806001600160a01b0316836001600160a01b0316036107475760405162461bcd60e51b815260206004820152602160248201527f4552433732313a20617070726f76616c20746f2063757272656e74206f776e656044820152603960f91b60648201526084016106aa565b336001600160a01b038216148061076357506107638133610530565b6107d55760405162461bcd60e51b815260206004820152603860248201527f4552433732313a20617070726f76652063616c6c6572206973206e6f74206f7760448201527f6e6572206e6f7220617070726f76656420666f7220616c6c000000000000000060648201526084016106aa565b6107df8383612a6f565b505050565b606060006107f160075490565b905060006107fe60085490565b60075461080b91906141a5565b9050600080826001600160401b0381111561082857610828613b4c565b60405190808252806020026020018201604052801561086157816020015b61084e6135d4565b8152602001906001900390816108465790505b50905060005b84811015610d0c5730600c600061087f8460016141bc565b81526020810191909152604001600020600201546001600160a01b031603610cfa5760006108ae8260016141bc565b6000818152600c60209081526040918290208251610160810184528154815260018201546001600160a01b039081169382019390935260028201549092169282019290925260038201546060820152600482015460ff161515608082015260058201805493945091929091839160a08401919061092a90614155565b80601f016020809104026020016040519081016040528092919081815260200182805461095690614155565b80156109a35780601f10610978576101008083540402835291602001916109a3565b820191906000526020600020905b81548152906001019060200180831161098657829003601f168201915b505050505081526020016006820180546109bc90614155565b80601f01602080910402602001604051908101604052809291908181526020018280546109e890614155565b8015610a355780601f10610a0a57610100808354040283529160200191610a35565b820191906000526020600020905b815481529060010190602001808311610a1857829003601f168201915b50505050508152602001600782018054610a4e90614155565b80601f0160208091040260200160405190810160405280929190818152602001828054610a7a90614155565b8015610ac75780601f10610a9c57610100808354040283529160200191610ac7565b820191906000526020600020905b815481529060010190602001808311610aaa57829003601f168201915b50505050508152602001600882018054610ae090614155565b80601f0160208091040260200160405190810160405280929190818152602001828054610b0c90614155565b8015610b595780601f10610b2e57610100808354040283529160200191610b59565b820191906000526020600020905b815481529060010190602001808311610b3c57829003601f168201915b50505050508152602001600982018054610b7290614155565b80601f0160208091040260200160405190810160405280929190818152602001828054610b9e90614155565b8015610beb5780601f10610bc057610100808354040283529160200191610beb565b820191906000526020600020905b815481529060010190602001808311610bce57829003601f168201915b50505050508152602001600a8201805480602002602001604051908101604052809291908181526020016000905b82821015610cc5578382906000526020600020018054610c3890614155565b80601f0160208091040260200160405190810160405280929190818152602001828054610c6490614155565b8015610cb15780601f10610c8657610100808354040283529160200191610cb1565b820191906000526020600020905b815481529060010190602001808311610c9457829003601f168201915b505050505081526020019060010190610c19565b5050505081525050848681518110610cdf57610cdf6141d4565b6020908102919091010152610cf56001866141bc565b945050505b80610d04816141ea565b915050610867565b50949350505050565b610d506040518060a0016040528060006001600160a01b03168152602001606081526020016060815260200160608152602001606081525090565b6001600160a01b038083166000908152600f6020908152604091829020825160a081019093528054909316825260018301805492939291840191610d9390614155565b80601f0160208091040260200160405190810160405280929190818152602001828054610dbf90614155565b8015610e0c5780601f10610de157610100808354040283529160200191610e0c565b820191906000526020600020905b815481529060010190602001808311610def57829003601f168201915b50505050508152602001600282018054610e2590614155565b80601f0160208091040260200160405190810160405280929190818152602001828054610e5190614155565b8015610e9e5780601f10610e7357610100808354040283529160200191610e9e565b820191906000526020600020905b815481529060010190602001808311610e8157829003601f168201915b50505050508152602001600382018054610eb790614155565b80601f0160208091040260200160405190810160405280929190818152602001828054610ee390614155565b8015610f305780601f10610f0557610100808354040283529160200191610f30565b820191906000526020600020905b815481529060010190602001808311610f1357829003601f168201915b50505050508152602001600482018054610f4990614155565b80601f0160208091040260200160405190810160405280929190818152602001828054610f7590614155565b8015610fc25780601f10610f9757610100808354040283529160200191610fc2565b820191906000526020600020905b815481529060010190602001808311610fa557829003601f168201915b5050505050815250509050919050565b60606000610fdf60075490565b905060008060005b838110156110415733600c6000610fff8460016141bc565b81526020810191909152604001600020600201546001600160a01b03160361102f5761102c6001846141bc565b92505b80611039816141ea565b915050610fe7565b506000826001600160401b0381111561105c5761105c613b4c565b60405190808252806020026020018201604052801561109557816020015b6110826135d4565b81526020019060019003908161107a5790505b50905060005b84811015610d0c5733600c60006110b38460016141bc565b81526020810191909152604001600020600201546001600160a01b03160361152e5760006110e28260016141bc565b6000818152600c60209081526040918290208251610160810184528154815260018201546001600160a01b039081169382019390935260028201549092169282019290925260038201546060820152600482015460ff161515608082015260058201805493945091929091839160a08401919061115e90614155565b80601f016020809104026020016040519081016040528092919081815260200182805461118a90614155565b80156111d75780601f106111ac576101008083540402835291602001916111d7565b820191906000526020600020905b8154815290600101906020018083116111ba57829003601f168201915b505050505081526020016006820180546111f090614155565b80601f016020809104026020016040519081016040528092919081815260200182805461121c90614155565b80156112695780601f1061123e57610100808354040283529160200191611269565b820191906000526020600020905b81548152906001019060200180831161124c57829003601f168201915b5050505050815260200160078201805461128290614155565b80601f01602080910402602001604051908101604052809291908181526020018280546112ae90614155565b80156112fb5780601f106112d0576101008083540402835291602001916112fb565b820191906000526020600020905b8154815290600101906020018083116112de57829003601f168201915b5050505050815260200160088201805461131490614155565b80601f016020809104026020016040519081016040528092919081815260200182805461134090614155565b801561138d5780601f106113625761010080835404028352916020019161138d565b820191906000526020600020905b81548152906001019060200180831161137057829003601f168201915b505050505081526020016009820180546113a690614155565b80601f01602080910402602001604051908101604052809291908181526020018280546113d290614155565b801561141f5780601f106113f45761010080835404028352916020019161141f565b820191906000526020600020905b81548152906001019060200180831161140257829003601f168201915b50505050508152602001600a8201805480602002602001604051908101604052809291908181526020016000905b828210156114f957838290600052602060002001805461146c90614155565b80601f016020809104026020016040519081016040528092919081815260200182805461149890614155565b80156114e55780601f106114ba576101008083540402835291602001916114e5565b820191906000526020600020905b8154815290600101906020018083116114c857829003601f168201915b50505050508152602001906001019061144d565b5050505081525050848681518110611513576115136141d4565b60209081029190910101526115296001866141bc565b945050505b80611538816141ea565b91505061109b565b61154a3382612add565b6115665760405162461bcd60e51b81526004016106aa90614203565b6107df838383612bc3565b336000908152600f60209081526040909120855161159792600190920191870190613642565b50336000908152600f6020908152604090912084516115be92600290920191860190613642565b50336000908152600f6020908152604090912083516115e592600390920191850190613642565b50336000908152600f60209081526040909120825161160c92600490920191840190613642565b507fb933ee8d9d34857709d225cfb53394f51d4790e26c44967ba5a649f77e227f273385858585604051611644959493929190614254565b60405180910390a150505050565b6000611662600780546001019055565b600061166d60075490565b90506116793382612d63565b611683818b612e96565b611693818a8a8a8a8a8a8a612f21565b9998505050505050505050565b6107df83838360405180602001604052806000815250612013565b606060006116c860075490565b905060008060005b8381101561172a5733600c60006116e88460016141bc565b81526020810191909152604001600020600101546001600160a01b031603611718576117156001846141bc565b92505b80611722816141ea565b9150506116d0565b506000826001600160401b0381111561174557611745613b4c565b60405190808252806020026020018201604052801561177e57816020015b61176b6135d4565b8152602001906001900390816117635790505b50905060005b84811015610d0c5733600c600061179c8460016141bc565b81526020810191909152604001600020600101546001600160a01b031603611c175760006117cb8260016141bc565b6000818152600c60209081526040918290208251610160810184528154815260018201546001600160a01b039081169382019390935260028201549092169282019290925260038201546060820152600482015460ff161515608082015260058201805493945091929091839160a08401919061184790614155565b80601f016020809104026020016040519081016040528092919081815260200182805461187390614155565b80156118c05780601f10611895576101008083540402835291602001916118c0565b820191906000526020600020905b8154815290600101906020018083116118a357829003601f168201915b505050505081526020016006820180546118d990614155565b80601f016020809104026020016040519081016040528092919081815260200182805461190590614155565b80156119525780601f1061192757610100808354040283529160200191611952565b820191906000526020600020905b81548152906001019060200180831161193557829003601f168201915b5050505050815260200160078201805461196b90614155565b80601f016020809104026020016040519081016040528092919081815260200182805461199790614155565b80156119e45780601f106119b9576101008083540402835291602001916119e4565b820191906000526020600020905b8154815290600101906020018083116119c757829003601f168201915b505050505081526020016008820180546119fd90614155565b80601f0160208091040260200160405190810160405280929190818152602001828054611a2990614155565b8015611a765780601f10611a4b57610100808354040283529160200191611a76565b820191906000526020600020905b815481529060010190602001808311611a5957829003601f168201915b50505050508152602001600982018054611a8f90614155565b80601f0160208091040260200160405190810160405280929190818152602001828054611abb90614155565b8015611b085780601f10611add57610100808354040283529160200191611b08565b820191906000526020600020905b815481529060010190602001808311611aeb57829003601f168201915b50505050508152602001600a8201805480602002602001604051908101604052809291908181526020016000905b82821015611be2578382906000526020600020018054611b5590614155565b80601f0160208091040260200160405190810160405280929190818152602001828054611b8190614155565b8015611bce5780601f10611ba357610100808354040283529160200191611bce565b820191906000526020600020905b815481529060010190602001808311611bb157829003601f168201915b505050505081526020019060010190611b36565b5050505081525050848681518110611bfc57611bfc6141d4565b6020908102919091010152611c126001866141bc565b945050505b80611c21816141ea565b915050611784565b6000818152600260205260408120546001600160a01b0316806105aa5760405162461bcd60e51b815260206004820152602960248201527f4552433732313a206f776e657220717565727920666f72206e6f6e657869737460448201526832b73a103a37b5b2b760b91b60648201526084016106aa565b60006001600160a01b038216611d0b5760405162461bcd60e51b815260206004820152602a60248201527f4552433732313a2062616c616e636520717565727920666f7220746865207a65604482015269726f206164647265737360b01b60648201526084016106aa565b506001600160a01b031660009081526003602052604090205490565b6060600180546105bf90614155565b611d44600980546001019055565b6000611d4f60095490565b6040805160e08101825282815260208082018a81528284018a90523360608401526080830189905260a0830188905260c083018790526000858152600e83529390932082518155925180519495509193611daf9260018501920190613642565b5060408201518051611dcb916002840191602090910190613642565b5060608201516003820180546001600160a01b0319166001600160a01b0390921691909117905560808201518051611e0d916004840191602090910190613642565b5060a08201518051611e29916005840191602090910190613642565b5060c08201518051611e459160068401916020909101906136c6565b50905050807fee38cd7ea2edc742606893993ec3b51721e42f045393244426bd29b6b04de13b878733888888604051611e8396959493929190614307565b60405180910390a2505050505050565b611e9e3383836131a3565b5050565b600b546001600160a01b03163314611f155760405162461bcd60e51b815260206004820152603060248201527f4f6e6c79206d61726b6574706c616365206f776e65722063616e20757064617460448201526f32903634b9ba34b73390383934b1b29760811b60648201526084016106aa565b600a55565b6040805160a08101825233808252602080830188815283850188905260608401879052608084018690526000928352600f825293909120825181546001600160a01b0319166001600160a01b0390911617815592518051929392611f849260018501920190613642565b5060408201518051611fa0916002840191602090910190613642565b5060608201518051611fbc916003840191602090910190613642565b5060808201518051611fd8916004840191602090910190613642565b509050507f6500691cfa7cfc48ea0921479d4c46cb566815e4580310fe3c88b45351ee7ab03385858585604051611644959493929190614254565b61201d3383612add565b6120395760405162461bcd60e51b81526004016106aa90614203565b61204584848484613271565b50505050565b6000818152600c6020526040902060038101546001909101546001600160a01b03163482146120e4576040805162461bcd60e51b81526020600482015260248101919091527f506c65617365207375626d6974207468652061736b696e67207072696365206960448201527f6e206f7264657220746f20636f6d706c6574652074686520707572636861736560648201526084016106aa565b6000838152600c602052604090206002810180546001600160a01b0319908116331790915560048201805460ff1916600190811790915590910180549091169055612133600880546001019055565b61213e303385612bc3565b600b54600a546040516001600160a01b039092169181156108fc0291906000818181858888f1935050505015801561217a573d6000803e3d6000fd5b506040516001600160a01b038216903480156108fc02916000818181858888f193505050501580156121b0573d6000803e3d6000fd5b506000838152600c6020526040908190206001810154600282015460038301546004840154945188957fbfc579b1a135bc8c61895dfae2fda594df38c060fbbb74a9215cf1e361b9d47795612236956001600160a01b039081169516939260ff9092169160058201916006810191600782019160088101916009820191600a0190614463565b60405180910390a2505050565b61224b61371f565b600e60008381526020019081526020016000206040518060e00160405290816000820154815260200160018201805461228390614155565b80601f01602080910402602001604051908101604052809291908181526020018280546122af90614155565b80156122fc5780601f106122d1576101008083540402835291602001916122fc565b820191906000526020600020905b8154815290600101906020018083116122df57829003601f168201915b5050505050815260200160028201805461231590614155565b80601f016020809104026020016040519081016040528092919081815260200182805461234190614155565b801561238e5780601f106123635761010080835404028352916020019161238e565b820191906000526020600020905b81548152906001019060200180831161237157829003601f168201915b505050918352505060038201546001600160a01b031660208201526004820180546040909201916123be90614155565b80601f01602080910402602001604051908101604052809291908181526020018280546123ea90614155565b80156124375780601f1061240c57610100808354040283529160200191612437565b820191906000526020600020905b81548152906001019060200180831161241a57829003601f168201915b5050505050815260200160058201805461245090614155565b80601f016020809104026020016040519081016040528092919081815260200182805461247c90614155565b80156124c95780601f1061249e576101008083540402835291602001916124c9565b820191906000526020600020905b8154815290600101906020018083116124ac57829003601f168201915b5050505050815260200160068201805480602002602001604051908101604052809291908181526020016000905b828210156125a357838290600052602060002001805461251690614155565b80601f016020809104026020016040519081016040528092919081815260200182805461254290614155565b801561258f5780601f106125645761010080835404028352916020019161258f565b820191906000526020600020905b81548152906001019060200180831161257257829003601f168201915b5050505050815260200190600101906124f7565b505050915250909392505050565b60606125bc82612a52565b6126225760405162461bcd60e51b815260206004820152603160248201527f45524337323155524953746f726167653a2055524920717565727920666f72206044820152703737b732bc34b9ba32b73a103a37b5b2b760791b60648201526084016106aa565b6000828152600660205260408120805461263b90614155565b80601f016020809104026020016040519081016040528092919081815260200182805461266790614155565b80156126b45780601f10612689576101008083540402835291602001916126b4565b820191906000526020600020905b81548152906001019060200180831161269757829003601f168201915b5050505050905060006126d260408051602081019091526000815290565b905080516000036126e4575092915050565b8151156127165780826040516020016126fe929190614516565b60405160208183030381529060405292505050919050565b61271f846132a4565b949350505050565b6060600061273460095490565b9050600080826001600160401b0381111561275157612751613b4c565b60405190808252806020026020018201604052801561278a57816020015b61277761371f565b81526020019060019003908161276f5790505b50905060005b83811015612839576000600e816127a88460016141bc565b815260200190815260200160002060040180546127c490614155565b905011156128275760006127d98260016141bc565b905060008382815181106127ef576127ef6141d4565b602002602001015190508084868151811061280c5761280c6141d4565b60209081029190910101526128226001866141bc565b945050505b80612831816141ea565b915050612790565b509392505050565b6000828152600c60205260409020600201546001600160a01b031633146128bd5760405162461bcd60e51b815260206004820152602a60248201527f4f6e6c79206974656d206f776e65722063616e20706572666f726d20746869736044820152691037b832b930ba34b7b760b11b60648201526084016106aa565b600a5434146128de5760405162461bcd60e51b81526004016106aa90614545565b6000828152600c6020526040902060048101805460ff19169055600381018290556001810180546001600160a01b03199081163317909155600290910180549091163017905561292e600861337c565b611e9e333084612bc3565b6060600061294660095490565b9050600080826001600160401b0381111561296357612963613b4c565b60405190808252806020026020018201604052801561299c57816020015b61298961371f565b8152602001906001900390816129815790505b50905060005b83811015610d0c576001600160a01b038616600e60006129c38460016141bc565b81526020810191909152604001600020600301546001600160a01b031603612a405760006129f28260016141bc565b90506000838281518110612a0857612a086141d4565b6020026020010151905080848681518110612a2557612a256141d4565b6020908102919091010152612a3b6001866141bc565b945050505b80612a4a816141ea565b9150506129a2565b6000908152600260205260409020546001600160a01b0316151590565b600081815260046020526040902080546001600160a01b0319166001600160a01b0384169081179091558190612aa482611c29565b6001600160a01b03167f8c5be1e5ebec7d5bd14f71427d1e84f3dd0314c0f7b2291e5b200ac8c7c3b92560405160405180910390a45050565b6000612ae882612a52565b612b495760405162461bcd60e51b815260206004820152602c60248201527f4552433732313a206f70657261746f7220717565727920666f72206e6f6e657860448201526b34b9ba32b73a103a37b5b2b760a11b60648201526084016106aa565b6000612b5483611c29565b9050806001600160a01b0316846001600160a01b03161480612b8f5750836001600160a01b0316612b8484610642565b6001600160a01b0316145b8061271f57506001600160a01b0380821660009081526005602090815260408083209388168352929052205460ff1661271f565b826001600160a01b0316612bd682611c29565b6001600160a01b031614612c3e5760405162461bcd60e51b815260206004820152602960248201527f4552433732313a207472616e73666572206f6620746f6b656e2074686174206960448201526839903737ba1037bbb760b91b60648201526084016106aa565b6001600160a01b038216612ca05760405162461bcd60e51b8152602060048201526024808201527f4552433732313a207472616e7366657220746f20746865207a65726f206164646044820152637265737360e01b60648201526084016106aa565b612cab600082612a6f565b6001600160a01b0383166000908152600360205260408120805460019290612cd49084906141a5565b90915550506001600160a01b0382166000908152600360205260408120805460019290612d029084906141bc565b909155505060008181526002602052604080822080546001600160a01b0319166001600160a01b0386811691821790925591518493918716917fddf252ad1be2c89b69c2b068fc378daa952ba7f163c4a11628f55a4df523b3ef91a4505050565b6001600160a01b038216612db95760405162461bcd60e51b815260206004820181905260248201527f4552433732313a206d696e7420746f20746865207a65726f206164647265737360448201526064016106aa565b612dc281612a52565b15612e0f5760405162461bcd60e51b815260206004820152601c60248201527f4552433732313a20746f6b656e20616c7265616479206d696e7465640000000060448201526064016106aa565b6001600160a01b0382166000908152600360205260408120805460019290612e389084906141bc565b909155505060008181526002602052604080822080546001600160a01b0319166001600160a01b03861690811790915590518392907fddf252ad1be2c89b69c2b068fc378daa952ba7f163c4a11628f55a4df523b3ef908290a45050565b612e9f82612a52565b612f025760405162461bcd60e51b815260206004820152602e60248201527f45524337323155524953746f726167653a2055524920736574206f66206e6f6e60448201526d32bc34b9ba32b73a103a37b5b2b760911b60648201526084016106aa565b600082815260066020908152604090912082516107df92840190613642565b60008711612f715760405162461bcd60e51b815260206004820152601c60248201527f5072696365206d757374206265206174206c656173742031207765690000000060448201526064016106aa565b600a543414612f925760405162461bcd60e51b81526004016106aa90614545565b604051806101600160405280898152602001336001600160a01b03168152602001306001600160a01b0316815260200188815260200160001515815260200187815260200186815260200185815260200184815260200183815260200182815250600c60008a81526020019081526020016000206000820151816000015560208201518160010160006101000a8154816001600160a01b0302191690836001600160a01b0316021790555060408201518160020160006101000a8154816001600160a01b0302191690836001600160a01b031602179055506060820151816003015560808201518160040160006101000a81548160ff02191690831515021790555060a08201518160050190805190602001906130b0929190613642565b5060c082015180516130cc916006840191602090910190613642565b5060e082015180516130e8916007840191602090910190613642565b506101008201518051613105916008840191602090910190613642565b506101208201518051613122916009840191602090910190613642565b50610140820151805161313f91600a8401916020909101906136c6565b5090505061314e33308a612bc3565b877f72411520c8cea870298a2be671012a3be4146347fe4ddcd31351ef38d4d0537433308a60008b8b8b8b8b8b6040516131919a99989796959493929190614589565b60405180910390a25050505050505050565b816001600160a01b0316836001600160a01b0316036132045760405162461bcd60e51b815260206004820152601960248201527f4552433732313a20617070726f766520746f2063616c6c65720000000000000060448201526064016106aa565b6001600160a01b03838116600081815260056020908152604080832094871680845294825291829020805460ff191686151590811790915591519182527f17307eab39ab6107e8899845ad3d59bd9653f200f220920489ca2b5937696c31910160405180910390a3505050565b61327c848484612bc3565b613288848484846133d3565b6120455760405162461bcd60e51b81526004016106aa9061462b565b60606132af82612a52565b6133135760405162461bcd60e51b815260206004820152602f60248201527f4552433732314d657461646174613a2055524920717565727920666f72206e6f60448201526e3732bc34b9ba32b73a103a37b5b2b760891b60648201526084016106aa565b600061332a60408051602081019091526000815290565b9050600081511161334a5760405180602001604052806000815250613375565b80613354846134d4565b604051602001613365929190614516565b6040516020818303038152906040525b9392505050565b8054806133cb5760405162461bcd60e51b815260206004820152601b60248201527f436f756e7465723a2064656372656d656e74206f766572666c6f77000000000060448201526064016106aa565b600019019055565b60006001600160a01b0384163b156134c957604051630a85bd0160e11b81526001600160a01b0385169063150b7a029061341790339089908890889060040161467d565b6020604051808303816000875af1925050508015613452575060408051601f3d908101601f1916820190925261344f918101906146ba565b60015b6134af573d808015613480576040519150601f19603f3d011682016040523d82523d6000602084013e613485565b606091505b5080516000036134a75760405162461bcd60e51b81526004016106aa9061462b565b805181602001fd5b6001600160e01b031916630a85bd0160e11b14905061271f565b506001949350505050565b6060816000036134fb5750506040805180820190915260018152600360fc1b602082015290565b8160005b8115613525578061350f816141ea565b915061351e9050600a836146ed565b91506134ff565b6000816001600160401b0381111561353f5761353f613b4c565b6040519080825280601f01601f191660200182016040528015613569576020820181803683370190505b5090505b841561271f5761357e6001836141a5565b915061358b600a86614701565b6135969060306141bc565b60f81b8183815181106135ab576135ab6141d4565b60200101906001600160f81b031916908160001a9053506135cd600a866146ed565b945061356d565b6040518061016001604052806000815260200160006001600160a01b0316815260200160006001600160a01b03168152602001600081526020016000151581526020016060815260200160608152602001606081526020016060815260200160608152602001606081525090565b82805461364e90614155565b90600052602060002090601f01602090048101928261367057600085556136b6565b82601f1061368957805160ff19168380011785556136b6565b828001600101855582156136b6579182015b828111156136b657825182559160200191906001019061369b565b506136c2929150613765565b5090565b828054828255906000526020600020908101928215613713579160200282015b828111156137135782518051613703918491602090910190613642565b50916020019190600101906136e6565b506136c292915061377a565b6040518060e0016040528060008152602001606081526020016060815260200160006001600160a01b031681526020016060815260200160608152602001606081525090565b5b808211156136c25760008155600101613766565b808211156136c257600061378e8282613797565b5060010161377a565b5080546137a390614155565b6000825580601f106137b3575050565b601f0160209004906000526020600020908101906137d19190613765565b50565b6001600160e01b0319811681146137d157600080fd5b6000602082840312156137fc57600080fd5b8135613375816137d4565b60005b8381101561382257818101518382015260200161380a565b838111156120455750506000910152565b6000815180845261384b816020860160208601613807565b601f01601f19169290920160200192915050565b6020815260006133756020830184613833565b60006020828403121561388457600080fd5b5035919050565b80356001600160a01b03811681146138a257600080fd5b919050565b600080604083850312156138ba57600080fd5b6138c38361388b565b946020939093013593505050565b600082825180855260208086019550808260051b84010181860160005b8481101561391c57601f1986840301895261390a838351613833565b988401989250908301906001016138ee565b5090979650505050505050565b60006020808301818452808551808352604092508286019150828160051b87010184880160005b83811015613a5757603f19898403018552815180518452878101516001600160a01b03908116898601528782015116878501526060808201519085015260808082015115159085015260a08082015161016082870181905291906139b683880182613833565b9250505060c080830151868303828801526139d18382613833565b9250505060e080830151868303828801526139ec8382613833565b925050506101008083015186830382880152613a088382613833565b925050506101208083015186830382880152613a248382613833565b925050506101408083015192508582038187015250613a4381836138d1565b968901969450505090860190600101613950565b509098975050505050505050565b600060208284031215613a7757600080fd5b6133758261388b565b602080825282516001600160a01b03168282015282015160a06040830152600090613aae60c0840182613833565b90506040840151601f1980858403016060860152613acc8383613833565b92506060860151915080858403016080860152613ae98383613833565b925060808601519150808584030160a086015250613b078282613833565b95945050505050565b600080600060608486031215613b2557600080fd5b613b2e8461388b565b9250613b3c6020850161388b565b9150604084013590509250925092565b634e487b7160e01b600052604160045260246000fd5b604051601f8201601f191681016001600160401b0381118282101715613b8a57613b8a613b4c565b604052919050565b60006001600160401b03831115613bab57613bab613b4c565b613bbe601f8401601f1916602001613b62565b9050828152838383011115613bd257600080fd5b828260208301376000602084830101529392505050565b600082601f830112613bfa57600080fd5b61337583833560208501613b92565b60008060008060808587031215613c1f57600080fd5b84356001600160401b0380821115613c3657600080fd5b613c4288838901613be9565b95506020870135915080821115613c5857600080fd5b613c6488838901613be9565b94506040870135915080821115613c7a57600080fd5b613c8688838901613be9565b93506060870135915080821115613c9c57600080fd5b50613ca987828801613be9565b91505092959194509250565b600082601f830112613cc657600080fd5b813560206001600160401b0380831115613ce257613ce2613b4c565b8260051b613cf1838201613b62565b9384528581018301938381019088861115613d0b57600080fd5b84880192505b85831015613d4757823584811115613d295760008081fd5b613d378a87838c0101613be9565b8352509184019190840190613d11565b98975050505050505050565b600080600080600080600080610100898b031215613d7057600080fd5b88356001600160401b0380821115613d8757600080fd5b613d938c838d01613be9565b995060208b0135985060408b0135915080821115613db057600080fd5b613dbc8c838d01613be9565b975060608b0135915080821115613dd257600080fd5b613dde8c838d01613be9565b965060808b0135915080821115613df457600080fd5b613e008c838d01613be9565b955060a08b0135915080821115613e1657600080fd5b613e228c838d01613be9565b945060c08b0135915080821115613e3857600080fd5b613e448c838d01613be9565b935060e08b0135915080821115613e5a57600080fd5b50613e678b828c01613cb5565b9150509295985092959890939650565b600080600080600060a08688031215613e8f57600080fd5b85356001600160401b0380821115613ea657600080fd5b613eb289838a01613be9565b96506020880135915080821115613ec857600080fd5b613ed489838a01613be9565b95506040880135915080821115613eea57600080fd5b613ef689838a01613be9565b94506060880135915080821115613f0c57600080fd5b613f1889838a01613be9565b93506080880135915080821115613f2e57600080fd5b50613f3b88828901613cb5565b9150509295509295909350565b60008060408385031215613f5b57600080fd5b613f648361388b565b915060208301358015158114613f7957600080fd5b809150509250929050565b60008060008060808587031215613f9a57600080fd5b613fa38561388b565b9350613fb16020860161388b565b92506040850135915060608501356001600160401b03811115613fd357600080fd5b8501601f81018713613fe457600080fd5b613ca987823560208401613b92565b805182526000602082015160e0602085015261401260e0850182613833565b90506040830151848203604086015261402b8282613833565b91505060018060a01b036060840151166060850152608083015184820360808601526140578282613833565b91505060a083015184820360a08601526140718282613833565b91505060c083015184820360c0860152613b0782826138d1565b6020815260006133756020830184613ff3565b6000602080830181845280855180835260408601915060408160051b870101925083870160005b828110156140f357603f198886030184526140e1858351613ff3565b945092850192908501906001016140c5565b5092979650505050505050565b6000806040838503121561411357600080fd5b50508035926020909101359150565b6000806040838503121561413557600080fd5b61413e8361388b565b915061414c6020840161388b565b90509250929050565b600181811c9082168061416957607f821691505b60208210810361418957634e487b7160e01b600052602260045260246000fd5b50919050565b634e487b7160e01b600052601160045260246000fd5b6000828210156141b7576141b761418f565b500390565b600082198211156141cf576141cf61418f565b500190565b634e487b7160e01b600052603260045260246000fd5b6000600182016141fc576141fc61418f565b5060010190565b60208082526031908201527f4552433732313a207472616e736665722063616c6c6572206973206e6f74206f6040820152701ddb995c881b9bdc88185c1c1c9bdd9959607a1b606082015260800190565b6001600160a01b038616815260a06020820181905260009061427890830187613833565b828103604084015261428a8187613833565b9050828103606084015261429e8186613833565b90508281036080840152613d478185613833565b600081518084526020808501808196508360051b8101915082860160005b858110156142fa5782840389526142e8848351613833565b988501989350908401906001016142d0565b5091979650505050505050565b60c08152600061431a60c0830189613833565b828103602084015261432c8189613833565b6001600160a01b03881660408501528381036060850152905061434f8187613833565b905082810360808401526143638186613833565b905082810360a084015261169381856142b2565b8054600090600181811c908083168061439157607f831692505b602080841082036143b257634e487b7160e01b600052602260045260246000fd5b8388528180156143c957600181146143dd5761440b565b60ff1986168983015260408901965061440b565b876000528160002060005b868110156144035781548b82018501529085019083016143e8565b8a0183019750505b50505050505092915050565b600081548084526020808501808196508360051b81019150856000528260002060005b858110156142fa5782840389526144518483614377565b9885019893506001918201910161443a565b6001600160a01b038b811682528a1660208201526040810189905287151560608201526101406080820181905260009061449f8382018a614377565b905082810360a08401526144b38189614377565b905082810360c08401526144c78188614377565b905082810360e08401526144db8187614377565b90508281036101008401526144f08186614377565b90508281036101208401526145058185614417565b9d9c50505050505050505050505050565b60008351614528818460208801613807565b83519083019061453c818360208801613807565b01949350505050565b60208082526024908201527f5072696365206d75737420626520657175616c20746f206c697374696e6720706040820152637269636560e01b606082015260800190565b6001600160a01b038b811682528a166020820152604081018990528715156060820152610140608082018190526000906145c58382018a613833565b905082810360a08401526145d98189613833565b905082810360c08401526145ed8188613833565b905082810360e08401526146018187613833565b90508281036101008401526146168186613833565b905082810361012084015261450581856142b2565b60208082526032908201527f4552433732313a207472616e7366657220746f206e6f6e20455243373231526560408201527131b2b4bb32b91034b6b83632b6b2b73a32b960711b606082015260800190565b6001600160a01b03858116825284166020820152604081018390526080606082018190526000906146b090830184613833565b9695505050505050565b6000602082840312156146cc57600080fd5b8151613375816137d4565b634e487b7160e01b600052601260045260246000fd5b6000826146fc576146fc6146d7565b500490565b600082614710576147106146d7565b50069056fea2646970667358221220655ab09b2fe4724aad6edf1be413620a2e46cd1081eedb1615a7c88946dae7ad64736f6c634300080d0033",
  "linkReferences": {},
  "deployedLinkReferences": {}
}