{
  "_format": "hh-sol-artifact-1",
  "contractName": "UnrealMarket",
  "sourceName": "contracts/UnrealMarket.sol",
  "abi": [
    {
      "inputs": [],
      "stateMutability": "nonpayable",
      "type": "constructor"
    },
    {
      "anonymous": false,
      "inputs": [
        {
          "indexed": true,
          "internalType": "address",
          "name": "owner",
          "type": "address"
        },
        {
          "indexed": true,
          "internalType": "address",
          "name": "approved",
          "type": "address"
        },
        {
          "indexed": true,
          "internalType": "uint256",
          "name": "tokenId",
          "type": "uint256"
        }
      ],
      "name": "Approval",
      "type": "event"
    },
    {
      "anonymous": false,
      "inputs": [
        {
          "indexed": true,
          "internalType": "address",
          "name": "owner",
          "type": "address"
        },
        {
          "indexed": true,
          "internalType": "address",
          "name": "operator",
          "type": "address"
        },
        {
          "indexed": false,
          "internalType": "bool",
          "name": "approved",
          "type": "bool"
        }
      ],
      "name": "ApprovalForAll",
      "type": "event"
    },
    {
      "anonymous": false,
      "inputs": [
        {
          "indexed": true,
          "internalType": "uint256",
          "name": "collectionId",
          "type": "uint256"
        },
        {
          "indexed": false,
          "internalType": "string",
          "name": "banner",
          "type": "string"
        },
        {
          "indexed": false,
          "internalType": "string",
          "name": "dp",
          "type": "string"
        },
        {
          "indexed": false,
          "internalType": "address",
          "name": "owner",
          "type": "address"
        },
        {
          "indexed": false,
          "internalType": "string",
          "name": "name",
          "type": "string"
        },
        {
          "indexed": false,
          "internalType": "uint256",
          "name": "totalSupply",
          "type": "uint256"
        },
        {
          "indexed": false,
          "internalType": "uint256",
          "name": "noHolders",
          "type": "uint256"
        },
        {
          "indexed": false,
          "internalType": "string",
          "name": "description",
          "type": "string"
        },
        {
          "indexed": false,
          "internalType": "string[]",
          "name": "tags",
          "type": "string[]"
        }
      ],
      "name": "CollectionCreated",
      "type": "event"
    },
    {
      "anonymous": false,
      "inputs": [
        {
          "indexed": true,
          "internalType": "uint256",
          "name": "tokenId",
          "type": "uint256"
        },
        {
          "indexed": false,
          "internalType": "address",
          "name": "seller",
          "type": "address"
        },
        {
          "indexed": false,
          "internalType": "address",
          "name": "owner",
          "type": "address"
        },
        {
          "indexed": false,
          "internalType": "uint256",
          "name": "price",
          "type": "uint256"
        },
        {
          "indexed": false,
          "internalType": "bool",
          "name": "sold",
          "type": "bool"
        },
        {
          "indexed": false,
          "internalType": "string",
          "name": "collection",
          "type": "string"
        },
        {
          "indexed": false,
          "internalType": "string",
          "name": "name",
          "type": "string"
        },
        {
          "indexed": false,
          "internalType": "string",
          "name": "image",
          "type": "string"
        },
        {
          "indexed": false,
          "internalType": "string",
          "name": "category",
          "type": "string"
        },
        {
          "indexed": false,
          "internalType": "string",
          "name": "description",
          "type": "string"
        },
        {
          "indexed": false,
          "internalType": "string[]",
          "name": "tags",
          "type": "string[]"
        }
      ],
      "name": "MarketItemCreated",
      "type": "event"
    },
    {
      "anonymous": false,
      "inputs": [
        {
          "indexed": false,
          "internalType": "address",
          "name": "profileId",
          "type": "address"
        },
        {
          "indexed": false,
          "internalType": "string",
          "name": "banner",
          "type": "string"
        },
        {
          "indexed": false,
          "internalType": "string",
          "name": "dp",
          "type": "string"
        },
        {
          "indexed": false,
          "internalType": "string",
          "name": "name",
          "type": "string"
        },
        {
          "indexed": false,
          "internalType": "string",
          "name": "bio",
          "type": "string"
        }
      ],
      "name": "ProfileCreated",
      "type": "event"
    },
    {
      "anonymous": false,
      "inputs": [
        {
          "indexed": false,
          "internalType": "address",
          "name": "profileId",
          "type": "address"
        },
        {
          "indexed": false,
          "internalType": "string",
          "name": "banner",
          "type": "string"
        },
        {
          "indexed": false,
          "internalType": "string",
          "name": "dp",
          "type": "string"
        },
        {
          "indexed": false,
          "internalType": "string",
          "name": "name",
          "type": "string"
        },
        {
          "indexed": false,
          "internalType": "string",
          "name": "bio",
          "type": "string"
        }
      ],
      "name": "ProfileEdited",
      "type": "event"
    },
    {
      "anonymous": false,
      "inputs": [
        {
          "indexed": true,
          "internalType": "address",
          "name": "from",
          "type": "address"
        },
        {
          "indexed": true,
          "internalType": "address",
          "name": "to",
          "type": "address"
        },
        {
          "indexed": true,
          "internalType": "uint256",
          "name": "tokenId",
          "type": "uint256"
        }
      ],
      "name": "Transfer",
      "type": "event"
    },
    {
      "inputs": [
        {
          "internalType": "address",
          "name": "to",
          "type": "address"
        },
        {
          "internalType": "uint256",
          "name": "tokenId",
          "type": "uint256"
        }
      ],
      "name": "approve",
      "outputs": [],
      "stateMutability": "nonpayable",
      "type": "function"
    },
    {
      "inputs": [
        {
          "internalType": "address",
          "name": "owner",
          "type": "address"
        }
      ],
      "name": "balanceOf",
      "outputs": [
        {
          "internalType": "uint256",
          "name": "",
          "type": "uint256"
        }
      ],
      "stateMutability": "view",
      "type": "function"
    },
    {
      "inputs": [
        {
          "internalType": "string",
          "name": "banner",
          "type": "string"
        },
        {
          "internalType": "string",
          "name": "dp",
          "type": "string"
        },
        {
          "internalType": "string",
          "name": "name",
          "type": "string"
        },
        {
          "internalType": "string",
          "name": "description",
          "type": "string"
        },
        {
          "internalType": "string[]",
          "name": "tags",
          "type": "string[]"
        }
      ],
      "name": "createCollection",
      "outputs": [],
      "stateMutability": "payable",
      "type": "function"
    },
    {
      "inputs": [
        {
          "internalType": "uint256",
          "name": "tokenId",
          "type": "uint256"
        }
      ],
      "name": "createMarketSale",
      "outputs": [],
      "stateMutability": "payable",
      "type": "function"
    },
    {
      "inputs": [
        {
          "internalType": "string",
          "name": "banner",
          "type": "string"
        },
        {
          "internalType": "string",
          "name": "dp",
          "type": "string"
        },
        {
          "internalType": "string",
          "name": "name",
          "type": "string"
        },
        {
          "internalType": "string",
          "name": "bio",
          "type": "string"
        }
      ],
      "name": "createProfile",
      "outputs": [],
      "stateMutability": "nonpayable",
      "type": "function"
    },
    {
      "inputs": [
        {
          "internalType": "string",
          "name": "tokenURI",
          "type": "string"
        },
        {
          "internalType": "uint256",
          "name": "price",
          "type": "uint256"
        },
        {
          "internalType": "string",
          "name": "collection",
          "type": "string"
        },
        {
          "internalType": "string",
          "name": "name",
          "type": "string"
        },
        {
          "internalType": "string",
          "name": "image",
          "type": "string"
        },
        {
          "internalType": "string",
          "name": "category",
          "type": "string"
        },
        {
          "internalType": "string",
          "name": "description",
          "type": "string"
        },
        {
          "internalType": "string[]",
          "name": "tags",
          "type": "string[]"
        }
      ],
      "name": "createToken",
      "outputs": [
        {
          "internalType": "uint256",
          "name": "",
          "type": "uint256"
        }
      ],
      "stateMutability": "payable",
      "type": "function"
    },
    {
      "inputs": [
        {
          "internalType": "string",
          "name": "banner",
          "type": "string"
        },
        {
          "internalType": "string",
          "name": "dp",
          "type": "string"
        },
        {
          "internalType": "string",
          "name": "name",
          "type": "string"
        },
        {
          "internalType": "string",
          "name": "bio",
          "type": "string"
        }
      ],
      "name": "editProfile",
      "outputs": [],
      "stateMutability": "nonpayable",
      "type": "function"
    },
    {
      "inputs": [
        {
          "internalType": "uint256",
          "name": "id",
          "type": "uint256"
        }
      ],
      "name": "fetchCollection",
      "outputs": [
        {
          "components": [
            {
              "internalType": "uint256",
              "name": "collectionId",
              "type": "uint256"
            },
            {
              "internalType": "string",
              "name": "banner",
              "type": "string"
            },
            {
              "internalType": "string",
              "name": "dp",
              "type": "string"
            },
            {
              "internalType": "address",
              "name": "owner",
              "type": "address"
            },
            {
              "internalType": "string",
              "name": "name",
              "type": "string"
            },
            {
              "internalType": "uint256",
              "name": "totalSupply",
              "type": "uint256"
            },
            {
              "internalType": "uint256",
              "name": "noHolders",
              "type": "uint256"
            },
            {
              "internalType": "string",
              "name": "description",
              "type": "string"
            },
            {
              "internalType": "string[]",
              "name": "tags",
              "type": "string[]"
            }
          ],
          "internalType": "struct UnrealMarket.Collection",
          "name": "",
          "type": "tuple"
        }
      ],
      "stateMutability": "view",
      "type": "function"
    },
    {
      "inputs": [],
      "name": "fetchCollections",
      "outputs": [
        {
          "components": [
            {
              "internalType": "uint256",
              "name": "collectionId",
              "type": "uint256"
            },
            {
              "internalType": "string",
              "name": "banner",
              "type": "string"
            },
            {
              "internalType": "string",
              "name": "dp",
              "type": "string"
            },
            {
              "internalType": "address",
              "name": "owner",
              "type": "address"
            },
            {
              "internalType": "string",
              "name": "name",
              "type": "string"
            },
            {
              "internalType": "uint256",
              "name": "totalSupply",
              "type": "uint256"
            },
            {
              "internalType": "uint256",
              "name": "noHolders",
              "type": "uint256"
            },
            {
              "internalType": "string",
              "name": "description",
              "type": "string"
            },
            {
              "internalType": "string[]",
              "name": "tags",
              "type": "string[]"
            }
          ],
          "internalType": "struct UnrealMarket.Collection[]",
          "name": "",
          "type": "tuple[]"
        }
      ],
      "stateMutability": "view",
      "type": "function"
    },
    {
      "inputs": [],
      "name": "fetchCollectionsOfAddress",
      "outputs": [
        {
          "components": [
            {
              "internalType": "uint256",
              "name": "collectionId",
              "type": "uint256"
            },
            {
              "internalType": "string",
              "name": "banner",
              "type": "string"
            },
            {
              "internalType": "string",
              "name": "dp",
              "type": "string"
            },
            {
              "internalType": "address",
              "name": "owner",
              "type": "address"
            },
            {
              "internalType": "string",
              "name": "name",
              "type": "string"
            },
            {
              "internalType": "uint256",
              "name": "totalSupply",
              "type": "uint256"
            },
            {
              "internalType": "uint256",
              "name": "noHolders",
              "type": "uint256"
            },
            {
              "internalType": "string",
              "name": "description",
              "type": "string"
            },
            {
              "internalType": "string[]",
              "name": "tags",
              "type": "string[]"
            }
          ],
          "internalType": "struct UnrealMarket.Collection[]",
          "name": "",
          "type": "tuple[]"
        }
      ],
      "stateMutability": "view",
      "type": "function"
    },
    {
      "inputs": [],
      "name": "fetchItemsListed",
      "outputs": [
        {
          "components": [
            {
              "internalType": "uint256",
              "name": "tokenId",
              "type": "uint256"
            },
            {
              "internalType": "address payable",
              "name": "seller",
              "type": "address"
            },
            {
              "internalType": "address payable",
              "name": "owner",
              "type": "address"
            },
            {
              "internalType": "uint256",
              "name": "price",
              "type": "uint256"
            },
            {
              "internalType": "bool",
              "name": "sold",
              "type": "bool"
            },
            {
              "internalType": "string",
              "name": "collection",
              "type": "string"
            },
            {
              "internalType": "string",
              "name": "name",
              "type": "string"
            },
            {
              "internalType": "string",
              "name": "image",
              "type": "string"
            },
            {
              "internalType": "string",
              "name": "category",
              "type": "string"
            },
            {
              "internalType": "string",
              "name": "description",
              "type": "string"
            },
            {
              "internalType": "string[]",
              "name": "tags",
              "type": "string[]"
            }
          ],
          "internalType": "struct UnrealMarket.MarketItem[]",
          "name": "",
          "type": "tuple[]"
        }
      ],
      "stateMutability": "view",
      "type": "function"
    },
    {
      "inputs": [],
      "name": "fetchMarketItems",
      "outputs": [
        {
          "components": [
            {
              "internalType": "uint256",
              "name": "tokenId",
              "type": "uint256"
            },
            {
              "internalType": "address payable",
              "name": "seller",
              "type": "address"
            },
            {
              "internalType": "address payable",
              "name": "owner",
              "type": "address"
            },
            {
              "internalType": "uint256",
              "name": "price",
              "type": "uint256"
            },
            {
              "internalType": "bool",
              "name": "sold",
              "type": "bool"
            },
            {
              "internalType": "string",
              "name": "collection",
              "type": "string"
            },
            {
              "internalType": "string",
              "name": "name",
              "type": "string"
            },
            {
              "internalType": "string",
              "name": "image",
              "type": "string"
            },
            {
              "internalType": "string",
              "name": "category",
              "type": "string"
            },
            {
              "internalType": "string",
              "name": "description",
              "type": "string"
            },
            {
              "internalType": "string[]",
              "name": "tags",
              "type": "string[]"
            }
          ],
          "internalType": "struct UnrealMarket.MarketItem[]",
          "name": "",
          "type": "tuple[]"
        }
      ],
      "stateMutability": "view",
      "type": "function"
    },
    {
      "inputs": [],
      "name": "fetchMyNFTs",
      "outputs": [
        {
          "components": [
            {
              "internalType": "uint256",
              "name": "tokenId",
              "type": "uint256"
            },
            {
              "internalType": "address payable",
              "name": "seller",
              "type": "address"
            },
            {
              "internalType": "address payable",
              "name": "owner",
              "type": "address"
            },
            {
              "internalType": "uint256",
              "name": "price",
              "type": "uint256"
            },
            {
              "internalType": "bool",
              "name": "sold",
              "type": "bool"
            },
            {
              "internalType": "string",
              "name": "collection",
              "type": "string"
            },
            {
              "internalType": "string",
              "name": "name",
              "type": "string"
            },
            {
              "internalType": "string",
              "name": "image",
              "type": "string"
            },
            {
              "internalType": "string",
              "name": "category",
              "type": "string"
            },
            {
              "internalType": "string",
              "name": "description",
              "type": "string"
            },
            {
              "internalType": "string[]",
              "name": "tags",
              "type": "string[]"
            }
          ],
          "internalType": "struct UnrealMarket.MarketItem[]",
          "name": "",
          "type": "tuple[]"
        }
      ],
      "stateMutability": "view",
      "type": "function"
    },
    {
      "inputs": [
        {
          "internalType": "uint256",
          "name": "tokenId",
          "type": "uint256"
        }
      ],
      "name": "getApproved",
      "outputs": [
        {
          "internalType": "address",
          "name": "",
          "type": "address"
        }
      ],
      "stateMutability": "view",
      "type": "function"
    },
    {
      "inputs": [],
      "name": "getListingPrice",
      "outputs": [
        {
          "internalType": "uint256",
          "name": "",
          "type": "uint256"
        }
      ],
      "stateMutability": "view",
      "type": "function"
    },
    {
      "inputs": [
        {
          "internalType": "address",
          "name": "id",
          "type": "address"
        }
      ],
      "name": "getProfile",
      "outputs": [
        {
          "components": [
            {
              "internalType": "address",
              "name": "profileId",
              "type": "address"
            },
            {
              "internalType": "string",
              "name": "banner",
              "type": "string"
            },
            {
              "internalType": "string",
              "name": "dp",
              "type": "string"
            },
            {
              "internalType": "string",
              "name": "name",
              "type": "string"
            },
            {
              "internalType": "string",
              "name": "bio",
              "type": "string"
            }
          ],
          "internalType": "struct UnrealMarket.Profile",
          "name": "",
          "type": "tuple"
        }
      ],
      "stateMutability": "view",
      "type": "function"
    },
    {
      "inputs": [
        {
          "internalType": "address",
          "name": "owner",
          "type": "address"
        },
        {
          "internalType": "address",
          "name": "operator",
          "type": "address"
        }
      ],
      "name": "isApprovedForAll",
      "outputs": [
        {
          "internalType": "bool",
          "name": "",
          "type": "bool"
        }
      ],
      "stateMutability": "view",
      "type": "function"
    },
    {
      "inputs": [],
      "name": "name",
      "outputs": [
        {
          "internalType": "string",
          "name": "",
          "type": "string"
        }
      ],
      "stateMutability": "view",
      "type": "function"
    },
    {
      "inputs": [
        {
          "internalType": "uint256",
          "name": "tokenId",
          "type": "uint256"
        }
      ],
      "name": "ownerOf",
      "outputs": [
        {
          "internalType": "address",
          "name": "",
          "type": "address"
        }
      ],
      "stateMutability": "view",
      "type": "function"
    },
    {
      "inputs": [
        {
          "internalType": "uint256",
          "name": "tokenId",
          "type": "uint256"
        },
        {
          "internalType": "uint256",
          "name": "price",
          "type": "uint256"
        }
      ],
      "name": "resellToken",
      "outputs": [],
      "stateMutability": "payable",
      "type": "function"
    },
    {
      "inputs": [
        {
          "internalType": "address",
          "name": "from",
          "type": "address"
        },
        {
          "internalType": "address",
          "name": "to",
          "type": "address"
        },
        {
          "internalType": "uint256",
          "name": "tokenId",
          "type": "uint256"
        }
      ],
      "name": "safeTransferFrom",
      "outputs": [],
      "stateMutability": "nonpayable",
      "type": "function"
    },
    {
      "inputs": [
        {
          "internalType": "address",
          "name": "from",
          "type": "address"
        },
        {
          "internalType": "address",
          "name": "to",
          "type": "address"
        },
        {
          "internalType": "uint256",
          "name": "tokenId",
          "type": "uint256"
        },
        {
          "internalType": "bytes",
          "name": "_data",
          "type": "bytes"
        }
      ],
      "name": "safeTransferFrom",
      "outputs": [],
      "stateMutability": "nonpayable",
      "type": "function"
    },
    {
      "inputs": [
        {
          "internalType": "address",
          "name": "operator",
          "type": "address"
        },
        {
          "internalType": "bool",
          "name": "approved",
          "type": "bool"
        }
      ],
      "name": "setApprovalForAll",
      "outputs": [],
      "stateMutability": "nonpayable",
      "type": "function"
    },
    {
      "inputs": [
        {
          "internalType": "bytes4",
          "name": "interfaceId",
          "type": "bytes4"
        }
      ],
      "name": "supportsInterface",
      "outputs": [
        {
          "internalType": "bool",
          "name": "",
          "type": "bool"
        }
      ],
      "stateMutability": "view",
      "type": "function"
    },
    {
      "inputs": [],
      "name": "symbol",
      "outputs": [
        {
          "internalType": "string",
          "name": "",
          "type": "string"
        }
      ],
      "stateMutability": "view",
      "type": "function"
    },
    {
      "inputs": [
        {
          "internalType": "uint256",
          "name": "tokenId",
          "type": "uint256"
        }
      ],
      "name": "tokenURI",
      "outputs": [
        {
          "internalType": "string",
          "name": "",
          "type": "string"
        }
      ],
      "stateMutability": "view",
      "type": "function"
    },
    {
      "inputs": [
        {
          "internalType": "address",
          "name": "from",
          "type": "address"
        },
        {
          "internalType": "address",
          "name": "to",
          "type": "address"
        },
        {
          "internalType": "uint256",
          "name": "tokenId",
          "type": "uint256"
        }
      ],
      "name": "transferFrom",
      "outputs": [],
      "stateMutability": "nonpayable",
      "type": "function"
    },
    {
      "inputs": [
        {
          "internalType": "uint256",
          "name": "_listingPrice",
          "type": "uint256"
        }
      ],
      "name": "updateListingPrice",
      "outputs": [],
      "stateMutability": "payable",
      "type": "function"
    }
  ],
  "bytecode": "0x60806040526658d15e17628000600a553480156200001c57600080fd5b50604080518082018252600d81526c155b9c99585b0813585c9ad95d609a1b60208083019182528351808501909452600384526215551560ea1b9084015281519192916200006d916000916200009e565b508051620000839060019060208401906200009e565b5050600b80546001600160a01b031916331790555062000180565b828054620000ac9062000144565b90600052602060002090601f016020900481019282620000d057600085556200011b565b82601f10620000eb57805160ff19168380011785556200011b565b828001600101855582156200011b579182015b828111156200011b578251825591602001919060010190620000fe565b50620001299291506200012d565b5090565b5b808211156200012957600081556001016200012e565b600181811c908216806200015957607f821691505b6020821081036200017a57634e487b7160e01b600052602260045260246000fd5b50919050565b61449c80620001906000396000f3fe6080604052600436106101b75760003560e01c806370a08231116100ec578063b88d4fde1161008a578063c87b56dd11610064578063c87b56dd146104b5578063d2ead4cb146104d5578063e219fc75146104ea578063e985e9c5146104fd57600080fd5b8063b88d4fde14610455578063be9af53614610475578063c2f8637d1461048857600080fd5b806398fa5254116100c657806398fa5254146103ef578063a22cb46514610402578063ae677aa314610422578063b0c0647f1461043557600080fd5b806370a082311461039857806382d05072146103b857806395d89b41146103da57600080fd5b8063202e374011610159578063427a857f11610133578063427a857f1461033057806342842e0e1461034357806345f8fa80146103635780636352211e1461037857600080fd5b8063202e3740146102db57806323b872dd146102f05780633e3a648d1461031057600080fd5b8063095ea7b311610195578063095ea7b31461024b5780630f08efe01461026d5780630f53a4701461028f57806312e85585146102bc57600080fd5b806301ffc9a7146101bc57806306fdde03146101f1578063081812fc14610213575b600080fd5b3480156101c857600080fd5b506101dc6101d7366004613729565b610546565b60405190151581526020015b60405180910390f35b3480156101fd57600080fd5b50610206610598565b6040516101e8919061379e565b34801561021f57600080fd5b5061023361022e3660046137b1565b61062a565b6040516001600160a01b0390911681526020016101e8565b34801561025757600080fd5b5061026b6102663660046137e6565b6106b7565b005b34801561027957600080fd5b506102826107cc565b6040516101e89190613868565b34801561029b57600080fd5b506102af6102aa3660046139a4565b610cfd565b6040516101e891906139bf565b3480156102c857600080fd5b50600a545b6040519081526020016101e8565b3480156102e757600080fd5b50610282610fba565b3480156102fc57600080fd5b5061026b61030b366004613a4f565b611528565b34801561031c57600080fd5b5061026b61032b366004613b48565b611559565b6102cd61033e366004613c92565b61163a565b34801561034f57600080fd5b5061026b61035e366004613a4f565b611688565b34801561036f57600080fd5b506102826116a3565b34801561038457600080fd5b506102336103933660046137b1565b611c11565b3480156103a457600080fd5b506102cd6103b33660046139a4565b611c88565b3480156103c457600080fd5b506103cd611d0f565b6040516101e89190613e78565b3480156103e657600080fd5b50610206611e27565b61026b6103fd366004613eda565b611e36565b34801561040e57600080fd5b5061026b61041d366004613fab565b611f96565b61026b6104303660046137b1565b611fa5565b34801561044157600080fd5b5061026b610450366004613b48565b61201d565b34801561046157600080fd5b5061026b610470366004613fe7565b612116565b61026b6104833660046137b1565b61214e565b34801561049457600080fd5b506104a86104a33660046137b1565b6122b3565b6040516101e89190614056565b3480156104c157600080fd5b506102066104d03660046137b1565b612636565b3480156104e157600080fd5b506103cd6127ac565b61026b6104f8366004614069565b61288a565b34801561050957600080fd5b506101dc61051836600461408b565b6001600160a01b03918216600090815260056020908152604080832093909416825291909152205460ff1690565b60006001600160e01b031982166380ac58cd60e01b148061057757506001600160e01b03198216635b5e139f60e01b145b8061059257506301ffc9a760e01b6001600160e01b03198316145b92915050565b6060600080546105a7906140be565b80601f01602080910402602001604051908101604052809291908181526020018280546105d3906140be565b80156106205780601f106105f557610100808354040283529160200191610620565b820191906000526020600020905b81548152906001019060200180831161060357829003601f168201915b5050505050905090565b600061063582612982565b61069b5760405162461bcd60e51b815260206004820152602c60248201527f4552433732313a20617070726f76656420717565727920666f72206e6f6e657860448201526b34b9ba32b73a103a37b5b2b760a11b60648201526084015b60405180910390fd5b506000908152600460205260409020546001600160a01b031690565b60006106c282611c11565b9050806001600160a01b0316836001600160a01b03160361072f5760405162461bcd60e51b815260206004820152602160248201527f4552433732313a20617070726f76616c20746f2063757272656e74206f776e656044820152603960f91b6064820152608401610692565b336001600160a01b038216148061074b575061074b8133610518565b6107bd5760405162461bcd60e51b815260206004820152603860248201527f4552433732313a20617070726f76652063616c6c6572206973206e6f74206f7760448201527f6e6572206e6f7220617070726f76656420666f7220616c6c00000000000000006064820152608401610692565b6107c7838361299f565b505050565b606060006107d960075490565b905060006107e660085490565b6007546107f3919061410e565b9050600080826001600160401b0381111561081057610810613a8b565b60405190808252806020026020018201604052801561084957816020015b610836613504565b81526020019060019003908161082e5790505b50905060005b84811015610cf45730600c6000610867846001614125565b81526020810191909152604001600020600201546001600160a01b031603610ce2576000610896826001614125565b6000818152600c60209081526040918290208251610160810184528154815260018201546001600160a01b039081169382019390935260028201549092169282019290925260038201546060820152600482015460ff161515608082015260058201805493945091929091839160a084019190610912906140be565b80601f016020809104026020016040519081016040528092919081815260200182805461093e906140be565b801561098b5780601f106109605761010080835404028352916020019161098b565b820191906000526020600020905b81548152906001019060200180831161096e57829003601f168201915b505050505081526020016006820180546109a4906140be565b80601f01602080910402602001604051908101604052809291908181526020018280546109d0906140be565b8015610a1d5780601f106109f257610100808354040283529160200191610a1d565b820191906000526020600020905b815481529060010190602001808311610a0057829003601f168201915b50505050508152602001600782018054610a36906140be565b80601f0160208091040260200160405190810160405280929190818152602001828054610a62906140be565b8015610aaf5780601f10610a8457610100808354040283529160200191610aaf565b820191906000526020600020905b815481529060010190602001808311610a9257829003601f168201915b50505050508152602001600882018054610ac8906140be565b80601f0160208091040260200160405190810160405280929190818152602001828054610af4906140be565b8015610b415780601f10610b1657610100808354040283529160200191610b41565b820191906000526020600020905b815481529060010190602001808311610b2457829003601f168201915b50505050508152602001600982018054610b5a906140be565b80601f0160208091040260200160405190810160405280929190818152602001828054610b86906140be565b8015610bd35780601f10610ba857610100808354040283529160200191610bd3565b820191906000526020600020905b815481529060010190602001808311610bb657829003601f168201915b50505050508152602001600a8201805480602002602001604051908101604052809291908181526020016000905b82821015610cad578382906000526020600020018054610c20906140be565b80601f0160208091040260200160405190810160405280929190818152602001828054610c4c906140be565b8015610c995780601f10610c6e57610100808354040283529160200191610c99565b820191906000526020600020905b815481529060010190602001808311610c7c57829003601f168201915b505050505081526020019060010190610c01565b5050505081525050848681518110610cc757610cc761413d565b6020908102919091010152610cdd600186614125565b945050505b80610cec81614153565b91505061084f565b50949350505050565b610d386040518060a0016040528060006001600160a01b03168152602001606081526020016060815260200160608152602001606081525090565b6001600160a01b038083166000908152600f6020908152604091829020825160a081019093528054909316825260018301805492939291840191610d7b906140be565b80601f0160208091040260200160405190810160405280929190818152602001828054610da7906140be565b8015610df45780601f10610dc957610100808354040283529160200191610df4565b820191906000526020600020905b815481529060010190602001808311610dd757829003601f168201915b50505050508152602001600282018054610e0d906140be565b80601f0160208091040260200160405190810160405280929190818152602001828054610e39906140be565b8015610e865780601f10610e5b57610100808354040283529160200191610e86565b820191906000526020600020905b815481529060010190602001808311610e6957829003601f168201915b50505050508152602001600382018054610e9f906140be565b80601f0160208091040260200160405190810160405280929190818152602001828054610ecb906140be565b8015610f185780601f10610eed57610100808354040283529160200191610f18565b820191906000526020600020905b815481529060010190602001808311610efb57829003601f168201915b50505050508152602001600482018054610f31906140be565b80601f0160208091040260200160405190810160405280929190818152602001828054610f5d906140be565b8015610faa5780601f10610f7f57610100808354040283529160200191610faa565b820191906000526020600020905b815481529060010190602001808311610f8d57829003601f168201915b5050505050815250509050919050565b60606000610fc760075490565b905060008060005b838110156110295733600c6000610fe7846001614125565b81526020810191909152604001600020600201546001600160a01b03160361101757611014600184614125565b92505b8061102181614153565b915050610fcf565b506000826001600160401b0381111561104457611044613a8b565b60405190808252806020026020018201604052801561107d57816020015b61106a613504565b8152602001906001900390816110625790505b50905060005b84811015610cf45733600c600061109b846001614125565b81526020810191909152604001600020600201546001600160a01b0316036115165760006110ca826001614125565b6000818152600c60209081526040918290208251610160810184528154815260018201546001600160a01b039081169382019390935260028201549092169282019290925260038201546060820152600482015460ff161515608082015260058201805493945091929091839160a084019190611146906140be565b80601f0160208091040260200160405190810160405280929190818152602001828054611172906140be565b80156111bf5780601f10611194576101008083540402835291602001916111bf565b820191906000526020600020905b8154815290600101906020018083116111a257829003601f168201915b505050505081526020016006820180546111d8906140be565b80601f0160208091040260200160405190810160405280929190818152602001828054611204906140be565b80156112515780601f1061122657610100808354040283529160200191611251565b820191906000526020600020905b81548152906001019060200180831161123457829003601f168201915b5050505050815260200160078201805461126a906140be565b80601f0160208091040260200160405190810160405280929190818152602001828054611296906140be565b80156112e35780601f106112b8576101008083540402835291602001916112e3565b820191906000526020600020905b8154815290600101906020018083116112c657829003601f168201915b505050505081526020016008820180546112fc906140be565b80601f0160208091040260200160405190810160405280929190818152602001828054611328906140be565b80156113755780601f1061134a57610100808354040283529160200191611375565b820191906000526020600020905b81548152906001019060200180831161135857829003601f168201915b5050505050815260200160098201805461138e906140be565b80601f01602080910402602001604051908101604052809291908181526020018280546113ba906140be565b80156114075780601f106113dc57610100808354040283529160200191611407565b820191906000526020600020905b8154815290600101906020018083116113ea57829003601f168201915b50505050508152602001600a8201805480602002602001604051908101604052809291908181526020016000905b828210156114e1578382906000526020600020018054611454906140be565b80601f0160208091040260200160405190810160405280929190818152602001828054611480906140be565b80156114cd5780601f106114a2576101008083540402835291602001916114cd565b820191906000526020600020905b8154815290600101906020018083116114b057829003601f168201915b505050505081526020019060010190611435565b50505050815250508486815181106114fb576114fb61413d565b6020908102919091010152611511600186614125565b945050505b8061152081614153565b915050611083565b6115323382612a0d565b61154e5760405162461bcd60e51b81526004016106929061416c565b6107c7838383612af3565b336000908152600f60209081526040909120855161157f92600190920191870190613572565b50336000908152600f6020908152604090912084516115a692600290920191860190613572565b50336000908152600f6020908152604090912083516115cd92600390920191850190613572565b50336000908152600f6020908152604090912082516115f492600490920191840190613572565b507fb933ee8d9d34857709d225cfb53394f51d4790e26c44967ba5a649f77e227f27338585858560405161162c9594939291906141bd565b60405180910390a150505050565b600061164a600780546001019055565b600061165560075490565b90506116613382612c93565b61166b818b612dc6565b61167b818a8a8a8a8a8a8a612e51565b9998505050505050505050565b6107c783838360405180602001604052806000815250612116565b606060006116b060075490565b905060008060005b838110156117125733600c60006116d0846001614125565b81526020810191909152604001600020600101546001600160a01b031603611700576116fd600184614125565b92505b8061170a81614153565b9150506116b8565b506000826001600160401b0381111561172d5761172d613a8b565b60405190808252806020026020018201604052801561176657816020015b611753613504565b81526020019060019003908161174b5790505b50905060005b84811015610cf45733600c6000611784846001614125565b81526020810191909152604001600020600101546001600160a01b031603611bff5760006117b3826001614125565b6000818152600c60209081526040918290208251610160810184528154815260018201546001600160a01b039081169382019390935260028201549092169282019290925260038201546060820152600482015460ff161515608082015260058201805493945091929091839160a08401919061182f906140be565b80601f016020809104026020016040519081016040528092919081815260200182805461185b906140be565b80156118a85780601f1061187d576101008083540402835291602001916118a8565b820191906000526020600020905b81548152906001019060200180831161188b57829003601f168201915b505050505081526020016006820180546118c1906140be565b80601f01602080910402602001604051908101604052809291908181526020018280546118ed906140be565b801561193a5780601f1061190f5761010080835404028352916020019161193a565b820191906000526020600020905b81548152906001019060200180831161191d57829003601f168201915b50505050508152602001600782018054611953906140be565b80601f016020809104026020016040519081016040528092919081815260200182805461197f906140be565b80156119cc5780601f106119a1576101008083540402835291602001916119cc565b820191906000526020600020905b8154815290600101906020018083116119af57829003601f168201915b505050505081526020016008820180546119e5906140be565b80601f0160208091040260200160405190810160405280929190818152602001828054611a11906140be565b8015611a5e5780601f10611a3357610100808354040283529160200191611a5e565b820191906000526020600020905b815481529060010190602001808311611a4157829003601f168201915b50505050508152602001600982018054611a77906140be565b80601f0160208091040260200160405190810160405280929190818152602001828054611aa3906140be565b8015611af05780601f10611ac557610100808354040283529160200191611af0565b820191906000526020600020905b815481529060010190602001808311611ad357829003601f168201915b50505050508152602001600a8201805480602002602001604051908101604052809291908181526020016000905b82821015611bca578382906000526020600020018054611b3d906140be565b80601f0160208091040260200160405190810160405280929190818152602001828054611b69906140be565b8015611bb65780601f10611b8b57610100808354040283529160200191611bb6565b820191906000526020600020905b815481529060010190602001808311611b9957829003601f168201915b505050505081526020019060010190611b1e565b5050505081525050848681518110611be457611be461413d565b6020908102919091010152611bfa600186614125565b945050505b80611c0981614153565b91505061176c565b6000818152600260205260408120546001600160a01b0316806105925760405162461bcd60e51b815260206004820152602960248201527f4552433732313a206f776e657220717565727920666f72206e6f6e657869737460448201526832b73a103a37b5b2b760b91b6064820152608401610692565b60006001600160a01b038216611cf35760405162461bcd60e51b815260206004820152602a60248201527f4552433732313a2062616c616e636520717565727920666f7220746865207a65604482015269726f206164647265737360b01b6064820152608401610692565b506001600160a01b031660009081526003602052604090205490565b60606000611d1c60095490565b9050600080826001600160401b03811115611d3957611d39613a8b565b604051908082528060200260200182016040528015611d7257816020015b611d5f6135f6565b815260200190600190039081611d575790505b50905060005b83811015611e1f5733600e6000611d90846001614125565b81526020810191909152604001600020600301546001600160a01b031603611e0d576000611dbf826001614125565b90506000838281518110611dd557611dd561413d565b6020026020010151905080848681518110611df257611df261413d565b6020908102919091010152611e08600186614125565b945050505b80611e1781614153565b915050611d78565b509392505050565b6060600180546105a7906140be565b600a543414611e575760405162461bcd60e51b81526004016106929061421b565b611e65600980546001019055565b6000611e7060095490565b604080516101208101825282815260208082018a81528284018a905233606084015260808301899052600060a0840181905260c0840181905260e084018990526101008401889052858152600e83529390932082518155925180519495509193611ee09260018501920190613572565b5060408201518051611efc916002840191602090910190613572565b5060608201516003820180546001600160a01b0319166001600160a01b0390921691909117905560808201518051611f3e916004840191602090910190613572565b5060a0820151600582015560c0820151600682015560e08201518051611f6e916007840191602090910190613572565b506101008201518051611f8b91600884019160209091019061364b565b505050505050505050565b611fa13383836130d3565b5050565b600b546001600160a01b031633146120185760405162461bcd60e51b815260206004820152603060248201527f4f6e6c79206d61726b6574706c616365206f776e65722063616e20757064617460448201526f32903634b9ba34b73390383934b1b29760811b6064820152608401610692565b600a55565b6040805160a08101825233808252602080830188815283850188905260608401879052608084018690526000928352600f825293909120825181546001600160a01b0319166001600160a01b03909116178155925180519293926120879260018501920190613572565b50604082015180516120a3916002840191602090910190613572565b50606082015180516120bf916003840191602090910190613572565b50608082015180516120db916004840191602090910190613572565b509050507f6500691cfa7cfc48ea0921479d4c46cb566815e4580310fe3c88b45351ee7ab0338585858560405161162c9594939291906141bd565b6121203383612a0d565b61213c5760405162461bcd60e51b81526004016106929061416c565b612148848484846131a1565b50505050565b6000818152600c6020526040902060038101546001909101546001600160a01b03163482146121e7576040805162461bcd60e51b81526020600482015260248101919091527f506c65617365207375626d6974207468652061736b696e67207072696365206960448201527f6e206f7264657220746f20636f6d706c657465207468652070757263686173656064820152608401610692565b6000838152600c602052604090206002810180546001600160a01b0319908116331790915560048201805460ff1916600190811790915590910180549091169055612236600880546001019055565b612241303385612af3565b600b54600a546040516001600160a01b039092169181156108fc0291906000818181858888f1935050505015801561227d573d6000803e3d6000fd5b506040516001600160a01b038216903480156108fc02916000818181858888f19350505050158015612148573d6000803e3d6000fd5b6122bb6135f6565b600e600083815260200190815260200160002060405180610120016040529081600082015481526020016001820180546122f4906140be565b80601f0160208091040260200160405190810160405280929190818152602001828054612320906140be565b801561236d5780601f106123425761010080835404028352916020019161236d565b820191906000526020600020905b81548152906001019060200180831161235057829003601f168201915b50505050508152602001600282018054612386906140be565b80601f01602080910402602001604051908101604052809291908181526020018280546123b2906140be565b80156123ff5780601f106123d4576101008083540402835291602001916123ff565b820191906000526020600020905b8154815290600101906020018083116123e257829003601f168201915b505050918352505060038201546001600160a01b0316602082015260048201805460409092019161242f906140be565b80601f016020809104026020016040519081016040528092919081815260200182805461245b906140be565b80156124a85780601f1061247d576101008083540402835291602001916124a8565b820191906000526020600020905b81548152906001019060200180831161248b57829003601f168201915b5050505050815260200160058201548152602001600682015481526020016007820180546124d5906140be565b80601f0160208091040260200160405190810160405280929190818152602001828054612501906140be565b801561254e5780601f106125235761010080835404028352916020019161254e565b820191906000526020600020905b81548152906001019060200180831161253157829003601f168201915b5050505050815260200160088201805480602002602001604051908101604052809291908181526020016000905b8282101561262857838290600052602060002001805461259b906140be565b80601f01602080910402602001604051908101604052809291908181526020018280546125c7906140be565b80156126145780601f106125e957610100808354040283529160200191612614565b820191906000526020600020905b8154815290600101906020018083116125f757829003601f168201915b50505050508152602001906001019061257c565b505050915250909392505050565b606061264182612982565b6126a75760405162461bcd60e51b815260206004820152603160248201527f45524337323155524953746f726167653a2055524920717565727920666f72206044820152703737b732bc34b9ba32b73a103a37b5b2b760791b6064820152608401610692565b600082815260066020526040812080546126c0906140be565b80601f01602080910402602001604051908101604052809291908181526020018280546126ec906140be565b80156127395780601f1061270e57610100808354040283529160200191612739565b820191906000526020600020905b81548152906001019060200180831161271c57829003601f168201915b50505050509050600061275760408051602081019091526000815290565b90508051600003612769575092915050565b81511561279b57808260405160200161278392919061425f565b60405160208183030381529060405292505050919050565b6127a4846131d4565b949350505050565b606060006127b960095490565b9050600080826001600160401b038111156127d6576127d6613a8b565b60405190808252806020026020018201604052801561280f57816020015b6127fc6135f6565b8152602001906001900390816127f45790505b50905060005b83811015611e1f57600061282a826001614125565b905060008382815181106128405761284061413d565b602002602001015190508084868151811061285d5761285d61413d565b6020908102919091010152612873600186614125565b94505050808061288290614153565b915050612815565b6000828152600c60205260409020600201546001600160a01b031633146129065760405162461bcd60e51b815260206004820152602a60248201527f4f6e6c79206974656d206f776e65722063616e20706572666f726d20746869736044820152691037b832b930ba34b7b760b11b6064820152608401610692565b600a5434146129275760405162461bcd60e51b81526004016106929061421b565b6000828152600c6020526040902060048101805460ff19169055600381018290556001810180546001600160a01b03199081163317909155600290910180549091163017905561297760086132ac565b611fa1333084612af3565b6000908152600260205260409020546001600160a01b0316151590565b600081815260046020526040902080546001600160a01b0319166001600160a01b03841690811790915581906129d482611c11565b6001600160a01b03167f8c5be1e5ebec7d5bd14f71427d1e84f3dd0314c0f7b2291e5b200ac8c7c3b92560405160405180910390a45050565b6000612a1882612982565b612a795760405162461bcd60e51b815260206004820152602c60248201527f4552433732313a206f70657261746f7220717565727920666f72206e6f6e657860448201526b34b9ba32b73a103a37b5b2b760a11b6064820152608401610692565b6000612a8483611c11565b9050806001600160a01b0316846001600160a01b03161480612abf5750836001600160a01b0316612ab48461062a565b6001600160a01b0316145b806127a457506001600160a01b0380821660009081526005602090815260408083209388168352929052205460ff166127a4565b826001600160a01b0316612b0682611c11565b6001600160a01b031614612b6e5760405162461bcd60e51b815260206004820152602960248201527f4552433732313a207472616e73666572206f6620746f6b656e2074686174206960448201526839903737ba1037bbb760b91b6064820152608401610692565b6001600160a01b038216612bd05760405162461bcd60e51b8152602060048201526024808201527f4552433732313a207472616e7366657220746f20746865207a65726f206164646044820152637265737360e01b6064820152608401610692565b612bdb60008261299f565b6001600160a01b0383166000908152600360205260408120805460019290612c0490849061410e565b90915550506001600160a01b0382166000908152600360205260408120805460019290612c32908490614125565b909155505060008181526002602052604080822080546001600160a01b0319166001600160a01b0386811691821790925591518493918716917fddf252ad1be2c89b69c2b068fc378daa952ba7f163c4a11628f55a4df523b3ef91a4505050565b6001600160a01b038216612ce95760405162461bcd60e51b815260206004820181905260248201527f4552433732313a206d696e7420746f20746865207a65726f20616464726573736044820152606401610692565b612cf281612982565b15612d3f5760405162461bcd60e51b815260206004820152601c60248201527f4552433732313a20746f6b656e20616c7265616479206d696e746564000000006044820152606401610692565b6001600160a01b0382166000908152600360205260408120805460019290612d68908490614125565b909155505060008181526002602052604080822080546001600160a01b0319166001600160a01b03861690811790915590518392907fddf252ad1be2c89b69c2b068fc378daa952ba7f163c4a11628f55a4df523b3ef908290a45050565b612dcf82612982565b612e325760405162461bcd60e51b815260206004820152602e60248201527f45524337323155524953746f726167653a2055524920736574206f66206e6f6e60448201526d32bc34b9ba32b73a103a37b5b2b760911b6064820152608401610692565b600082815260066020908152604090912082516107c792840190613572565b60008711612ea15760405162461bcd60e51b815260206004820152601c60248201527f5072696365206d757374206265206174206c65617374203120776569000000006044820152606401610692565b600a543414612ec25760405162461bcd60e51b81526004016106929061421b565b604051806101600160405280898152602001336001600160a01b03168152602001306001600160a01b0316815260200188815260200160001515815260200187815260200186815260200185815260200184815260200183815260200182815250600c60008a81526020019081526020016000206000820151816000015560208201518160010160006101000a8154816001600160a01b0302191690836001600160a01b0316021790555060408201518160020160006101000a8154816001600160a01b0302191690836001600160a01b031602179055506060820151816003015560808201518160040160006101000a81548160ff02191690831515021790555060a0820151816005019080519060200190612fe0929190613572565b5060c08201518051612ffc916006840191602090910190613572565b5060e08201518051613018916007840191602090910190613572565b506101008201518051613035916008840191602090910190613572565b506101208201518051613052916009840191602090910190613572565b50610140820151805161306f91600a84019160209091019061364b565b5090505061307e33308a612af3565b877f72411520c8cea870298a2be671012a3be4146347fe4ddcd31351ef38d4d0537433308a60008b8b8b8b8b8b6040516130c19a999897969594939291906142d3565b60405180910390a25050505050505050565b816001600160a01b0316836001600160a01b0316036131345760405162461bcd60e51b815260206004820152601960248201527f4552433732313a20617070726f766520746f2063616c6c6572000000000000006044820152606401610692565b6001600160a01b03838116600081815260056020908152604080832094871680845294825291829020805460ff191686151590811790915591519182527f17307eab39ab6107e8899845ad3d59bd9653f200f220920489ca2b5937696c31910160405180910390a3505050565b6131ac848484612af3565b6131b884848484613303565b6121485760405162461bcd60e51b815260040161069290614386565b60606131df82612982565b6132435760405162461bcd60e51b815260206004820152602f60248201527f4552433732314d657461646174613a2055524920717565727920666f72206e6f60448201526e3732bc34b9ba32b73a103a37b5b2b760891b6064820152608401610692565b600061325a60408051602081019091526000815290565b9050600081511161327a57604051806020016040528060008152506132a5565b8061328484613404565b60405160200161329592919061425f565b6040516020818303038152906040525b9392505050565b8054806132fb5760405162461bcd60e51b815260206004820152601b60248201527f436f756e7465723a2064656372656d656e74206f766572666c6f7700000000006044820152606401610692565b600019019055565b60006001600160a01b0384163b156133f957604051630a85bd0160e11b81526001600160a01b0385169063150b7a02906133479033908990889088906004016143d8565b6020604051808303816000875af1925050508015613382575060408051601f3d908101601f1916820190925261337f9181019061440b565b60015b6133df573d8080156133b0576040519150601f19603f3d011682016040523d82523d6000602084013e6133b5565b606091505b5080516000036133d75760405162461bcd60e51b815260040161069290614386565b805181602001fd5b6001600160e01b031916630a85bd0160e11b1490506127a4565b506001949350505050565b60608160000361342b5750506040805180820190915260018152600360fc1b602082015290565b8160005b8115613455578061343f81614153565b915061344e9050600a8361443e565b915061342f565b6000816001600160401b0381111561346f5761346f613a8b565b6040519080825280601f01601f191660200182016040528015613499576020820181803683370190505b5090505b84156127a4576134ae60018361410e565b91506134bb600a86614452565b6134c6906030614125565b60f81b8183815181106134db576134db61413d565b60200101906001600160f81b031916908160001a9053506134fd600a8661443e565b945061349d565b6040518061016001604052806000815260200160006001600160a01b0316815260200160006001600160a01b03168152602001600081526020016000151581526020016060815260200160608152602001606081526020016060815260200160608152602001606081525090565b82805461357e906140be565b90600052602060002090601f0160209004810192826135a057600085556135e6565b82601f106135b957805160ff19168380011785556135e6565b828001600101855582156135e6579182015b828111156135e65782518255916020019190600101906135cb565b506135f29291506136a4565b5090565b60405180610120016040528060008152602001606081526020016060815260200160006001600160a01b0316815260200160608152602001600081526020016000815260200160608152602001606081525090565b828054828255906000526020600020908101928215613698579160200282015b828111156136985782518051613688918491602090910190613572565b509160200191906001019061366b565b506135f29291506136b9565b5b808211156135f257600081556001016136a5565b808211156135f25760006136cd82826136d6565b506001016136b9565b5080546136e2906140be565b6000825580601f106136f2575050565b601f01602090049060005260206000209081019061371091906136a4565b50565b6001600160e01b03198116811461371057600080fd5b60006020828403121561373b57600080fd5b81356132a581613713565b60005b83811015613761578181015183820152602001613749565b838111156121485750506000910152565b6000815180845261378a816020860160208601613746565b601f01601f19169290920160200192915050565b6020815260006132a56020830184613772565b6000602082840312156137c357600080fd5b5035919050565b80356001600160a01b03811681146137e157600080fd5b919050565b600080604083850312156137f957600080fd5b613802836137ca565b946020939093013593505050565b600082825180855260208086019550808260051b84010181860160005b8481101561385b57601f19868403018952613849838351613772565b9884019892509083019060010161382d565b5090979650505050505050565b60006020808301818452808551808352604092508286019150828160051b87010184880160005b8381101561399657603f19898403018552815180518452878101516001600160a01b03908116898601528782015116878501526060808201519085015260808082015115159085015260a08082015161016082870181905291906138f583880182613772565b9250505060c080830151868303828801526139108382613772565b9250505060e0808301518683038288015261392b8382613772565b9250505061010080830151868303828801526139478382613772565b9250505061012080830151868303828801526139638382613772565b9250505061014080830151925085820381870152506139828183613810565b96890196945050509086019060010161388f565b509098975050505050505050565b6000602082840312156139b657600080fd5b6132a5826137ca565b602080825282516001600160a01b03168282015282015160a060408301526000906139ed60c0840182613772565b90506040840151601f1980858403016060860152613a0b8383613772565b92506060860151915080858403016080860152613a288383613772565b925060808601519150808584030160a086015250613a468282613772565b95945050505050565b600080600060608486031215613a6457600080fd5b613a6d846137ca565b9250613a7b602085016137ca565b9150604084013590509250925092565b634e487b7160e01b600052604160045260246000fd5b604051601f8201601f191681016001600160401b0381118282101715613ac957613ac9613a8b565b604052919050565b60006001600160401b03831115613aea57613aea613a8b565b613afd601f8401601f1916602001613aa1565b9050828152838383011115613b1157600080fd5b828260208301376000602084830101529392505050565b600082601f830112613b3957600080fd5b6132a583833560208501613ad1565b60008060008060808587031215613b5e57600080fd5b84356001600160401b0380821115613b7557600080fd5b613b8188838901613b28565b95506020870135915080821115613b9757600080fd5b613ba388838901613b28565b94506040870135915080821115613bb957600080fd5b613bc588838901613b28565b93506060870135915080821115613bdb57600080fd5b50613be887828801613b28565b91505092959194509250565b600082601f830112613c0557600080fd5b813560206001600160401b0380831115613c2157613c21613a8b565b8260051b613c30838201613aa1565b9384528581018301938381019088861115613c4a57600080fd5b84880192505b85831015613c8657823584811115613c685760008081fd5b613c768a87838c0101613b28565b8352509184019190840190613c50565b98975050505050505050565b600080600080600080600080610100898b031215613caf57600080fd5b88356001600160401b0380821115613cc657600080fd5b613cd28c838d01613b28565b995060208b0135985060408b0135915080821115613cef57600080fd5b613cfb8c838d01613b28565b975060608b0135915080821115613d1157600080fd5b613d1d8c838d01613b28565b965060808b0135915080821115613d3357600080fd5b613d3f8c838d01613b28565b955060a08b0135915080821115613d5557600080fd5b613d618c838d01613b28565b945060c08b0135915080821115613d7757600080fd5b613d838c838d01613b28565b935060e08b0135915080821115613d9957600080fd5b50613da68b828c01613bf4565b9150509295985092959890939650565b6000610120825184526020830151816020860152613dd682860182613772565b91505060408301518482036040860152613df08282613772565b9150506060830151613e0d60608601826001600160a01b03169052565b5060808301518482036080860152613e258282613772565b91505060a083015160a085015260c083015160c085015260e083015184820360e0860152613e538282613772565b9150506101008084015185830382870152613e6e8382613810565b9695505050505050565b6000602080830181845280855180835260408601915060408160051b870101925083870160005b82811015613ecd57603f19888603018452613ebb858351613db6565b94509285019290850190600101613e9f565b5092979650505050505050565b600080600080600060a08688031215613ef257600080fd5b85356001600160401b0380821115613f0957600080fd5b613f1589838a01613b28565b96506020880135915080821115613f2b57600080fd5b613f3789838a01613b28565b95506040880135915080821115613f4d57600080fd5b613f5989838a01613b28565b94506060880135915080821115613f6f57600080fd5b613f7b89838a01613b28565b93506080880135915080821115613f9157600080fd5b50613f9e88828901613bf4565b9150509295509295909350565b60008060408385031215613fbe57600080fd5b613fc7836137ca565b915060208301358015158114613fdc57600080fd5b809150509250929050565b60008060008060808587031215613ffd57600080fd5b614006856137ca565b9350614014602086016137ca565b92506040850135915060608501356001600160401b0381111561403657600080fd5b8501601f8101871361404757600080fd5b613be887823560208401613ad1565b6020815260006132a56020830184613db6565b6000806040838503121561407c57600080fd5b50508035926020909101359150565b6000806040838503121561409e57600080fd5b6140a7836137ca565b91506140b5602084016137ca565b90509250929050565b600181811c908216806140d257607f821691505b6020821081036140f257634e487b7160e01b600052602260045260246000fd5b50919050565b634e487b7160e01b600052601160045260246000fd5b600082821015614120576141206140f8565b500390565b60008219821115614138576141386140f8565b500190565b634e487b7160e01b600052603260045260246000fd5b600060018201614165576141656140f8565b5060010190565b60208082526031908201527f4552433732313a207472616e736665722063616c6c6572206973206e6f74206f6040820152701ddb995c881b9bdc88185c1c1c9bdd9959607a1b606082015260800190565b6001600160a01b038616815260a0602082018190526000906141e190830187613772565b82810360408401526141f38187613772565b905082810360608401526142078186613772565b90508281036080840152613c868185613772565b60208082526024908201527f5072696365206d75737420626520657175616c20746f206c697374696e6720706040820152637269636560e01b606082015260800190565b60008351614271818460208801613746565b835190830190614285818360208801613746565b01949350505050565b6000815180845260208085019450848260051b860182860160005b8581101561385b5783830389526142c1838351613772565b988501989250908401906001016142a9565b6001600160a01b038b811682528a1660208201526040810189905287151560608201526101406080820181905260009061430f8382018a613772565b905082810360a08401526143238189613772565b905082810360c08401526143378188613772565b905082810360e084015261434b8187613772565b90508281036101008401526143608186613772565b9050828103610120840152614375818561428e565b9d9c50505050505050505050505050565b60208082526032908201527f4552433732313a207472616e7366657220746f206e6f6e20455243373231526560408201527131b2b4bb32b91034b6b83632b6b2b73a32b960711b606082015260800190565b6001600160a01b0385811682528416602082015260408101839052608060608201819052600090613e6e90830184613772565b60006020828403121561441d57600080fd5b81516132a581613713565b634e487b7160e01b600052601260045260246000fd5b60008261444d5761444d614428565b500490565b60008261446157614461614428565b50069056fea26469706673582212202b82f610dcfc08c87c2799d1bf74ea34be60025c46a415fdcf8e3470c40ff79464736f6c634300080d0033",
  "linkReferences": {},
  "deployedLinkReferences": {}
}